{"abi":[{"type":"constructor","inputs":[{"name":"_owners","type":"address[]","internalType":"address[]"},{"name":"_required","type":"uint256","internalType":"uint256"}],"stateMutability":"nonpayable"},{"type":"function","name":"cancel","inputs":[{"name":"txId","type":"uint256","internalType":"uint256"},{"name":"reason","type":"string","internalType":"string"}],"outputs":[],"stateMutability":"nonpayable"},{"type":"function","name":"confirm","inputs":[{"name":"txId","type":"uint256","internalType":"uint256"}],"outputs":[],"stateMutability":"nonpayable"},{"type":"function","name":"execute","inputs":[{"name":"txId","type":"uint256","internalType":"uint256"}],"outputs":[],"stateMutability":"nonpayable"},{"type":"function","name":"isOwner","inputs":[{"name":"","type":"address","internalType":"address"}],"outputs":[{"name":"","type":"bool","internalType":"bool"}],"stateMutability":"view"},{"type":"function","name":"owners","inputs":[{"name":"","type":"uint256","internalType":"uint256"}],"outputs":[{"name":"","type":"address","internalType":"address"}],"stateMutability":"view"},{"type":"function","name":"projectPayouts","inputs":[{"name":"","type":"bytes32","internalType":"bytes32"},{"name":"","type":"uint256","internalType":"uint256"}],"outputs":[{"name":"","type":"uint256","internalType":"uint256"}],"stateMutability":"view"},{"type":"function","name":"proposalExpiry","inputs":[],"outputs":[{"name":"","type":"uint256","internalType":"uint256"}],"stateMutability":"view"},{"type":"function","name":"propose","inputs":[{"name":"to","type":"address","internalType":"address payable"},{"name":"value","type":"uint256","internalType":"uint256"},{"name":"data","type":"bytes","internalType":"bytes"},{"name":"description","type":"string","internalType":"string"}],"outputs":[{"name":"","type":"uint256","internalType":"uint256"}],"stateMutability":"nonpayable"},{"type":"function","name":"proposeAddOwner","inputs":[{"name":"newOwner","type":"address","internalType":"address"},{"name":"description","type":"string","internalType":"string"}],"outputs":[{"name":"","type":"uint256","internalType":"uint256"}],"stateMutability":"nonpayable"},{"type":"function","name":"proposeChangeRequired","inputs":[{"name":"newRequired","type":"uint256","internalType":"uint256"},{"name":"description","type":"string","internalType":"string"}],"outputs":[{"name":"","type":"uint256","internalType":"uint256"}],"stateMutability":"nonpayable"},{"type":"function","name":"proposeProjectPayout","inputs":[{"name":"to","type":"address","internalType":"address payable"},{"name":"value","type":"uint256","internalType":"uint256"},{"name":"projectId","type":"bytes32","internalType":"bytes32"},{"name":"description","type":"string","internalType":"string"}],"outputs":[{"name":"","type":"uint256","internalType":"uint256"}],"stateMutability":"nonpayable"},{"type":"function","name":"proposeRemoveOwner","inputs":[{"name":"ownerToRemove","type":"address","internalType":"address"},{"name":"description","type":"string","internalType":"string"}],"outputs":[{"name":"","type":"uint256","internalType":"uint256"}],"stateMutability":"nonpayable"},{"type":"function","name":"requireAllOwnersForOwnershipChanges","inputs":[],"outputs":[{"name":"","type":"bool","internalType":"bool"}],"stateMutability":"view"},{"type":"function","name":"required","inputs":[],"outputs":[{"name":"","type":"uint256","internalType":"uint256"}],"stateMutability":"view"},{"type":"function","name":"revoke","inputs":[{"name":"txId","type":"uint256","internalType":"uint256"}],"outputs":[],"stateMutability":"nonpayable"},{"type":"function","name":"totalPaidToProject","inputs":[{"name":"","type":"bytes32","internalType":"bytes32"}],"outputs":[{"name":"","type":"uint256","internalType":"uint256"}],"stateMutability":"view"},{"type":"function","name":"txCount","inputs":[],"outputs":[{"name":"","type":"uint256","internalType":"uint256"}],"stateMutability":"view"},{"type":"function","name":"txs","inputs":[{"name":"","type":"uint256","internalType":"uint256"}],"outputs":[{"name":"id","type":"uint256","internalType":"uint256"},{"name":"to","type":"address","internalType":"address payable"},{"name":"value","type":"uint256","internalType":"uint256"},{"name":"data","type":"bytes","internalType":"bytes"},{"name":"txType","type":"uint8","internalType":"enum CommunityMultisig.TxType"},{"name":"status","type":"uint8","internalType":"enum CommunityMultisig.TxStatus"},{"name":"confirmations","type":"uint256","internalType":"uint256"},{"name":"createdAt","type":"uint256","internalType":"uint256"},{"name":"executedAt","type":"uint256","internalType":"uint256"},{"name":"projectId","type":"bytes32","internalType":"bytes32"},{"name":"description","type":"string","internalType":"string"},{"name":"proposer","type":"address","internalType":"address"}],"stateMutability":"view"},{"type":"event","name":"OwnerAdded","inputs":[{"name":"owner","type":"address","indexed":true,"internalType":"address"}],"anonymous":false},{"type":"event","name":"OwnerRemoved","inputs":[{"name":"owner","type":"address","indexed":true,"internalType":"address"}],"anonymous":false},{"type":"event","name":"ProjectPayoutCompleted","inputs":[{"name":"projectId","type":"bytes32","indexed":true,"internalType":"bytes32"},{"name":"amount","type":"uint256","indexed":false,"internalType":"uint256"},{"name":"to","type":"address","indexed":false,"internalType":"address"},{"name":"txId","type":"uint256","indexed":false,"internalType":"uint256"}],"anonymous":false},{"type":"event","name":"RequiredChanged","inputs":[{"name":"oldRequired","type":"uint256","indexed":false,"internalType":"uint256"},{"name":"newRequired","type":"uint256","indexed":false,"internalType":"uint256"}],"anonymous":false},{"type":"event","name":"TxCancelled","inputs":[{"name":"txId","type":"uint256","indexed":true,"internalType":"uint256"},{"name":"reason","type":"string","indexed":false,"internalType":"string"}],"anonymous":false},{"type":"event","name":"TxConfirmed","inputs":[{"name":"txId","type":"uint256","indexed":true,"internalType":"uint256"},{"name":"owner","type":"address","indexed":true,"internalType":"address"},{"name":"confirmationTime","type":"uint256","indexed":false,"internalType":"uint256"}],"anonymous":false},{"type":"event","name":"TxExecuted","inputs":[{"name":"txId","type":"uint256","indexed":true,"internalType":"uint256"},{"name":"executor","type":"address","indexed":true,"internalType":"address"}],"anonymous":false},{"type":"event","name":"TxProposed","inputs":[{"name":"txId","type":"uint256","indexed":true,"internalType":"uint256"},{"name":"proposer","type":"address","indexed":true,"internalType":"address"},{"name":"to","type":"address","indexed":true,"internalType":"address"},{"name":"value","type":"uint256","indexed":false,"internalType":"uint256"},{"name":"txType","type":"uint8","indexed":false,"internalType":"enum CommunityMultisig.TxType"},{"name":"projectId","type":"bytes32","indexed":false,"internalType":"bytes32"},{"name":"description","type":"string","indexed":false,"internalType":"string"}],"anonymous":false},{"type":"event","name":"TxRevoked","inputs":[{"name":"txId","type":"uint256","indexed":true,"internalType":"uint256"},{"name":"owner","type":"address","indexed":true,"internalType":"address"}],"anonymous":false}],"bytecode":{"object":"0x60406080815234620002ec5762001ea8803803806200001e8162000304565b9283398101908281830312620002ec5780516001600160401b0390818111620002ec5782019183601f84011215620002ec578251936020928511620002f0576005938560051b9084806200007481850162000304565b809981520192820101928311620002ec5790848094939201905b828210620002c05750505001519262278d0060075560019260ff1991848360085416176008558051156200028a57851515806200027e575b156200023a57928592859288955f975b620000ef575b505050505551611b7d90816200032b8239f35b8051881015620002345787821b81018401516001600160a01b03169788156200020057885f5260049889865260ff895f205416620001cb575f5468010000000000000000811015620001b857878101805f55811015620001a557908798999a8893925f8052885f20018260018060a01b0319825416179055815f5287528a5f2083878254161790557f994a936646fe87ffe4f1e469d3d6aa417d6b855598397f323de5b449f765f0c35f80a201979695620000d6565b60328b634e487b7160e01b5f525260245ffd5b60418b634e487b7160e01b5f525260245ffd5b885162461bcd60e51b8152808b01879052600f60248201526e323ab83634b1b0ba329037bbb732b960891b6044820152606490fd5b875162461bcd60e51b815260048101869052600d60248201526c34b73b30b634b21037bbb732b960991b6044820152606490fd5b620000dc565b865162461bcd60e51b815260048101859052601660248201527f696e76616c696420726571756972656420636f756e74000000000000000000006044820152606490fd5b508051861115620000c6565b865162461bcd60e51b815260048101859052600f60248201526e1bdddb995c9cc81c995c5d5a5c9959608a1b6044820152606490fd5b815193945091929091906001600160a01b0381168103620002ec5781528493929184019084016200008e565b5f80fd5b634e487b7160e01b5f52604160045260245ffd5b6040519190601f01601f191682016001600160401b03811183821017620002f05760405256fe6080806040526004361015610012575f80fd5b5f3560e01c908163025e7c2714611546575080631536f4721461148157806320c5429b1461135d5780632c508c6f1461127c5780632f54bf6e1461123f5780633c5406871461122257806358532cdd14610f2b57806366c7ea7f14610c645780636f3b3af714610b5d5780637f4b33e914610b4057806382ff16c114610874578063b38b7ce91461082f578063ba0179b5146106ba578063bb33b35e14610698578063dc8452cd1461067b578063f25b2b0f14610651578063f5715d56146104285763fe0d94c1146100e2575f80fd5b34610424576020806003193601126104245760043590335f526004815261010f60ff60405f205416611731565b61011c6002548310611769565b815f52600380825260ff600460405f20015460081c16818110156102ff5761014490156117b5565b825f5280825260405f209060018054600484019081549060ff821660048110156102ff57851480610418575b610410575b6005860154106103cb5761ff001916610100178155426007850155828401805461019e9061167d565b156103a45782850154600286015460405183546001600160a01b039093169390925f916101ca8261167d565b9188811690811561038d5750600114610358575b5050915f939181859403925af16101f361186e565b505b15610313575460ff1660048110156102ff578114610236575b33857f5ee51e76cad23bc6a0e665e0ed4388cf033d3bc1bba5c050849550c13001598d5f80a3005b600883019384545f526005815260405f2093845493680100000000000000008510156102eb5761028e857f33f268f3cbc4b4e5b88874af866ec50c6bbb94fb95e18c69ca11104470e74dc7978660609801815561159c565b81929154911b9089821b915f19901b19161790556002810195865481545f52600684526102c060405f20918254611853565b90555495549260018060a01b039101541690604051928352820152846040820152a25f80808061020e565b634e487b7160e01b5f52604160045260245ffd5b634e487b7160e01b5f52602160045260245ffd5b60405162461bcd60e51b815260048101869052601c60248201527f7472616e73616374696f6e20657865637574696f6e206661696c6564000000006044820152606490fd5b9091505f52885f2089875f925b84841061037b57505050908301905081836101de565b80548488015201910190878b91610365565b60ff191686525050801515028301905081836101de565b505f80808060018060a01b0386890154166002890154905af16103c561186e565b506101f5565b60405162461bcd60e51b815260048101879052601a60248201527f696e73756666696369656e7420636f6e6669726d6174696f6e730000000000006044820152606490fd5b505f54610175565b5060ff60085416610170565b5f80fd5b34610424576020366003190112610424576004355f526003602052602060405f20805460018060a01b0360018301541690600283015490600384019360405194855f8254926104768461167d565b808452936001811690811561063157506001146105f4575b5061049b925003866116d1565b60048101549260ff841692600583015496600684015490600785015492600886015494600987019660405180985f908054906104d68261167d565b80855291600181169081156105cd575060011461058f575b5050610531959493929161050391038a6116d1565b600a60018060a01b03910154169a6040519d8e610180948152015260408d01528060608d01528b01906116f3565b9460048110156102ff5760808a0152600360ff8760081c1610156102ff57889760ff6105849760081c1660a08a015260c089015260e08801526101008701526101208601528482036101408601526116f3565b906101608301520390f35b9091505f528e5f20905f915b8183106105b157505081018e01816105036104ee565b6020919390600191838583549201015201910190918a9261059b565b60ff191660208681019190915292151560051b8501909201925083915061050390506104ee565b90505f92919252875f20905f915b81831061061a575050908761049b928201018961048e565b80548984018b015288935091890191600101610602565b60ff1916848c01525061049b93151560051b83018a0191508a905061048e565b34610424576020366003190112610424576004355f526006602052602060405f2054604051908152f35b34610424575f366003190112610424576020600154604051908152f35b34610424575f36600319011261042457602060ff600854166040519015158152f35b346104245760208060031936011261042457600435335f52600482526106e660ff60405f205416611731565b6106f36002548210611769565b805f526003825260ff600460405f20015460081c1660038110156102ff5761071b90156117b5565b805f5260038252610736600660405f20015460075490611853565b42116107f457805f526003825260405f20600b8101335f5280845260ff60405f2054166107bb5790600591335f52845260405f20600160ff19825416179055600c810184524260405f20550161078c8154611860565b90557f10e04c403d71643173c004a4e2cf9bfaf1e2876e2e2834434d2caafc1170b042604051924284523393a3005b60405162461bcd60e51b8152600481018590526011602482015270185b1c9958591e4818dbdb999a5c9b5959607a1b6044820152606490fd5b60405162461bcd60e51b81526004810183905260136024820152721d1c985b9cd858dd1a5bdb88195e1c1a5c9959606a1b6044820152606490fd5b34610424576040366003190112610424576024356004355f52600560205260405f208054821015610424576020916108669161159c565b90546040519160031b1c8152f35b346104245760803660031901126104245761088d611627565b67ffffffffffffffff602435604435828111610424576108b19036906004016115c5565b939091606435848111610424576108f7936108d36108ff9236906004016115c5565b959091335f5260209860048a526108f060ff60405f205416611731565b369161181d565b94369161181d565b9161090b600254611860565b9485600255855f526003875260405f209586556001908187019260018060a01b0316956001600160601b0360a01b93878582541617905584600289015560038801908051908382116102eb5761096b82610965855461167d565b8561189d565b8a90601f8311600114610ade5761099992915f9183610ad3575b50508160011b915f199060031b1c19161790565b90555b6004870161ffff1981541690554260068801555f6008880155600987019185519182116102eb576109d182610965855461167d565b8890601f8311600114610a62575091610a11825f80516020611b288339815191529993600a955f91610a57575b508160011b915f199060031b1c19161790565b90555b019033908254161790556002549384916040519081525f878201525f60408201526080606082015280610a4c339560808301906116f3565b0390a4604051908152f35b90508801518c6109fe565b9190601f19821690845f528a5f20915f5b8c828210610abf575050918391600a96945f80516020611b288339815191529c969410610aa7575b5050811b019055610a14565b8901515f1960f88460031b161c191690558b80610a9b565b8a8401518555938601939283019201610a73565b015190508c80610985565b8592918c91601f198416865f52835f20935f905b828210610b275750508411610b0f575b505050811b01905561099c565b01515f1960f88460031b161c191690558b8080610b02565b8484015186558a97909501949384019390810190610af2565b34610424575f366003190112610424576020600754604051908152f35b3461042457610b6b3661163d565b90335f5260209260048452610b8660ff60405f205416611731565b6001600160a01b03165f81815260048552604090205490929060ff1615610c305760015f541115610beb57610be39291610bdc916040519363173825d960e01b878601526024850152602484526108f0846116b5565b90306118ec565b604051908152f35b60405162461bcd60e51b815260048101859052601860248201527f63616e6e6f742072656d6f7665206c617374206f776e657200000000000000006044820152606490fd5b60405162461bcd60e51b815260048101859052600c60248201526b3737ba1030b71037bbb732b960a11b6044820152606490fd5b3461042457610c72366115f3565b9190335f5260209260048452610c8e60ff60405f205416611731565b82151580610f20575b15610ee25790610cc39160405193636abb9e5b60e11b868601526024850152602484526108f0846116b5565b6002610ccf8154611860565b92838255835f526003855260405f20938455600193848101916001600160601b0360a01b9230848254161790555f8483015560038201815167ffffffffffffffff928382116102eb57610d2682610965855461167d565b8990601f8311600114610e8257610d5392915f9183610e775750508160011b915f199060031b1c19161790565b90555b60048201805461ffff1916851790554260068301555f60088301558451600983019181116102eb57610d9281610d8c845461167d565b8461189d565b8796601f8211600114610e18575080610dc491600a959697985f91610e0d57508160011b915f199060031b1c19161790565b90555b01903390825416179055805491604051915f8352848301525f604083015260806060830152825f80516020611b28833981519152309380610a4c339560808301906116f3565b90508801518a6109fe565b90601f19811697835f52895f20905f5b8b8b8210610e6357505082600a9798999a10610e4b575b5050811b019055610dc7565b8901515f1960f88460031b161c191690558980610e3f565b8a8301518455928501929182019101610e28565b015190508b80610985565b899291601f19831691855f528c5f20928d5f905b828210610ecb5750508411610eb3575b505050811b019055610d56565b01515f1960f88460031b161c191690558a8080610ea6565b8385015186558e979095019493840193018e610e96565b60405162461bcd60e51b81526004810185905260166024820152751a5b9d985b1a59081c995c5d5a5c99590818dbdd5b9d60521b6044820152606490fd5b505f54831115610c97565b3461042457608036600319011261042457610f44611627565b602435604435906064359267ffffffffffffffff9384811161042457610f6e9036906004016115c5565b949092335f5260209560048752610f8b60ff60405f205416611731565b85156111e8576040519487860191868310858411176102eb57610fb5926040525f8752369161181d565b92610fc1600254611860565b80600255805f526003885260405f209081556001938482019260018060a01b0316966001600160601b0360a01b938885825416179055846002840155600383019080518381116102eb5761101981610965855461167d565b8b8c601f831160011461118857508190611047935f9261117d5750508160011b915f199060031b1c19161790565b90555b60048201805461ffff191686179055426006830155600882018890558551600983019181116102eb5761108181610d8c845461167d565b89601f821160011461110457916110c0825f80516020611b2883398151915297969593600a955f916110f957508160011b915f199060031b1c19161790565b90555b019033908254161790556002549586936040519283528883015260408201526080606082015280610a4c339560808301906116f3565b90508a01518e6109fe565b5f8381528b81208893929091601f198416908e5b8c83831061116757505050918391600a96945f80516020611b288339815191529a999896941061114f575b5050811b0190556110c3565b8b01515f1960f88460031b161c191690558d80611143565b84015185558b969094019392830192018e611118565b015190508d80610985565b908993601f198416865f52835f20935f905b8282106111cf57505084116111b7575b505050811b01905561104a565b01515f1960f88460031b161c191690558c80806111aa565b8484015186558d9790950194938401939081019061119a565b60405162461bcd60e51b81526004810188905260126024820152711a5b9d985b1a59081c1c9bda9958dd08125160721b6044820152606490fd5b34610424575f366003190112610424576020600254604051908152f35b34610424576020366003190112610424576001600160a01b03611260611627565b165f526004602052602060ff60405f2054166040519015158152f35b346104245761128a3661163d565b90335f52602092600484526112a560ff60405f205416611731565b6001600160a01b031691821561132857825f526004845260ff60405f2054166112f357610be39291610bdc9160405193630e0cb96960e31b878601526024850152602484526108f0846116b5565b60405162461bcd60e51b815260048101859052600d60248201526c30b63932b0b23c9037bbb732b960991b6044820152606490fd5b60405162461bcd60e51b815260048101859052600d60248201526c34b73b30b634b21037bbb732b960991b6044820152606490fd5b346104245760208060031936011261042457600435335f526004825261138960ff60405f205416611731565b6113966002548210611769565b805f526003825260ff600460405f20015460081c1660038110156102ff576113be90156117b5565b805f526003825260405f20600b8101335f5280845260ff60405f2054161561144c579260059293335f52815260405f2060ff198154169055600c820190525f60408120550180548015611438575f1901905533907f24d83f69e25f86af362bf33f6e88d929ed67dc884cf0d3061660f5341a7e07c75f80a3005b634e487b7160e01b5f52601160045260245ffd5b60405162461bcd60e51b815260048101859052600d60248201526c1b9bdd0818dbdb999a5c9b5959609a1b6044820152606490fd5b346104245761148f366115f3565b335f5260046020526114a760ff60405f205416611731565b6114b46002548410611769565b825f52600360205260ff600460405f20015460081c1660038110156102ff577f436d6e41b4aa02a1b713771ae695969b79bdff4040162efc30621636fbe0de9992611501604092156117b5565b845f5260036020526004825f200161020061ff001982541617905582825193849260208452816020850152848401375f828201840152601f01601f19168101030190a2005b3461042457602036600319011261042457600435905f54821015610424575f80527f290decd9548b62a8d60345a988386fc84ba6bc95484008f6362f93160ef3e563909101546001600160a01b03168152602090f35b80548210156115b1575f5260205f2001905f90565b634e487b7160e01b5f52603260045260245ffd5b9181601f840112156104245782359167ffffffffffffffff8311610424576020838186019501011161042457565b90604060031983011261042457600435916024359067ffffffffffffffff821161042457611623916004016115c5565b9091565b600435906001600160a01b038216820361042457565b906040600319830112610424576004356001600160a01b038116810361042457916024359067ffffffffffffffff821161042457611623916004016115c5565b90600182811c921680156116ab575b602083101461169757565b634e487b7160e01b5f52602260045260245ffd5b91607f169161168c565b6060810190811067ffffffffffffffff8211176102eb57604052565b90601f8019910116810190811067ffffffffffffffff8211176102eb57604052565b91908251928382525f5b84811061171d575050825f602080949584010152601f8019910116010190565b6020818301810151848301820152016116fd565b1561173857565b60405162461bcd60e51b81526020600482015260096024820152683737ba1037bbb732b960b91b6044820152606490fd5b1561177057565b60405162461bcd60e51b815260206004820152601a60248201527f7472616e73616374696f6e20646f6573206e6f742065786973740000000000006044820152606490fd5b156117bc57565b60405162461bcd60e51b815260206004820152601760248201527f7472616e73616374696f6e206e6f742070656e64696e670000000000000000006044820152606490fd5b67ffffffffffffffff81116102eb57601f01601f191660200190565b92919261182982611801565b9161183760405193846116d1565b829481845281830111610424578281602093845f960137010152565b9190820180921161143857565b5f1981146114385760010190565b3d15611898573d9061187f82611801565b9161188d60405193846116d1565b82523d5f602084013e565b606090565b601f82116118aa57505050565b5f5260205f20906020601f840160051c830193106118e2575b601f0160051c01905b8181106118d7575050565b5f81556001016118cc565b90915081906118c3565b909291926118fb600254611860565b9384600255845f52600360209381855260405f209687556001968781019160018060a01b0316946001600160601b0360a01b9286848254161790555f6002830155838201815167ffffffffffffffff928382116102eb5761196082610965855461167d565b8990601f8311600114611abf5761198d92915f9183611ab45750508160011b915f199060031b1c19161790565b90555b60048201805461ffff1916851790554260068301555f60088301558451600983019181116102eb576119c681610d8c845461167d565b8799601f8211600114611a545750806119fb91600a95969798999a9b5f91611a4957508160011b915f199060031b1c19161790565b90555b019033908254161790555f80516020611b28833981519152600254948592604051915f83528201525f60408201526080606082015280611a43339560808301906116f3565b0390a490565b90508801515f6109fe565b90601f1981169a835f52895f20905f5b8d8110611a9f575082600a9798999a9b9c9d10611a88575b5050811b0190556119fe565b8901515f19838a1b60f8161c191690555f80611a7c565b89820151835591840191908b01908b01611a64565b015190505f80610985565b8c9291601f19831691855f528c5f20928d5f905b828210611b075750508411611af0575b505050811b019055611990565b01515f19838a1b60f8161c191690555f8080611ae3565b91929395968291958786015181550195019301908f95949392918e611ad356febb9c0997f0420d2146093165e502618e851d753b5ae02d63d5aa2b722bad8454a26469706673582212205ab81aed7ea9fe5775b24aed0165842f1ef5e9a212786b46c6eae22bb58985f664736f6c63430008170033","linkReferences":{}},"methodIdentifiers":{"cancel(uint256,string)":"1536f472","confirm(uint256)":"ba0179b5","execute(uint256)":"fe0d94c1","isOwner(address)":"2f54bf6e","owners(uint256)":"025e7c27","projectPayouts(bytes32,uint256)":"b38b7ce9","proposalExpiry()":"7f4b33e9","propose(address,uint256,bytes,string)":"82ff16c1","proposeAddOwner(address,string)":"2c508c6f","proposeChangeRequired(uint256,string)":"66c7ea7f","proposeProjectPayout(address,uint256,bytes32,string)":"58532cdd","proposeRemoveOwner(address,string)":"6f3b3af7","requireAllOwnersForOwnershipChanges()":"bb33b35e","required()":"dc8452cd","revoke(uint256)":"20c5429b","totalPaidToProject(bytes32)":"f25b2b0f","txCount()":"3c540687","txs(uint256)":"f5715d56"},"id":17}