{"abi":[{"type":"constructor","inputs":[{"name":"sbtAddress","type":"address","internalType":"address"}],"stateMutability":"nonpayable"},{"type":"function","name":"admin","inputs":[],"outputs":[{"name":"","type":"address","internalType":"address"}],"stateMutability":"view"},{"type":"function","name":"againstOf","inputs":[{"name":"roundId","type":"uint256","internalType":"uint256"},{"name":"projectId","type":"bytes32","internalType":"bytes32"}],"outputs":[{"name":"","type":"uint256","internalType":"uint256"}],"stateMutability":"view"},{"type":"function","name":"commit","inputs":[{"name":"roundId","type":"uint256","internalType":"uint256"},{"name":"hash","type":"bytes32","internalType":"bytes32"}],"outputs":[],"stateMutability":"nonpayable"},{"type":"function","name":"defaultCancellationThreshold","inputs":[],"outputs":[{"name":"","type":"uint256","internalType":"uint256"}],"stateMutability":"view"},{"type":"function","name":"defaultCommitDuration","inputs":[],"outputs":[{"name":"","type":"uint256","internalType":"uint256"}],"stateMutability":"view"},{"type":"function","name":"defaultRevealDuration","inputs":[],"outputs":[{"name":"","type":"uint256","internalType":"uint256"}],"stateMutability":"view"},{"type":"function","name":"finalize","inputs":[{"name":"roundId","type":"uint256","internalType":"uint256"}],"outputs":[],"stateMutability":"nonpayable"},{"type":"function","name":"forOf","inputs":[{"name":"roundId","type":"uint256","internalType":"uint256"},{"name":"projectId","type":"bytes32","internalType":"bytes32"}],"outputs":[{"name":"","type":"uint256","internalType":"uint256"}],"stateMutability":"view"},{"type":"function","name":"getProjectVoteResults","inputs":[{"name":"roundId","type":"uint256","internalType":"uint256"},{"name":"projectId","type":"bytes32","internalType":"bytes32"}],"outputs":[{"name":"forWeight","type":"uint256","internalType":"uint256"},{"name":"againstWeight","type":"uint256","internalType":"uint256"},{"name":"abstainedCount","type":"uint256","internalType":"uint256"},{"name":"notParticipatingCount","type":"uint256","internalType":"uint256"},{"name":"bordaPoints","type":"uint256","internalType":"uint256"}],"stateMutability":"view"},{"type":"function","name":"getRoundInfo","inputs":[{"name":"roundId","type":"uint256","internalType":"uint256"}],"outputs":[{"name":"startCommit","type":"uint256","internalType":"uint256"},{"name":"endCommit","type":"uint256","internalType":"uint256"},{"name":"endReveal","type":"uint256","internalType":"uint256"},{"name":"finalized","type":"bool","internalType":"bool"},{"name":"projectIds","type":"bytes32[]","internalType":"bytes32[]"},{"name":"countingMethod","type":"uint8","internalType":"enum BallotCommitReveal.CountingMethod"},{"name":"totalParticipants","type":"uint256","internalType":"uint256"},{"name":"totalRevealed","type":"uint256","internalType":"uint256"},{"name":"totalActiveMembers","type":"uint256","internalType":"uint256"}],"stateMutability":"view"},{"type":"function","name":"getTurnoutPercentage","inputs":[{"name":"roundId","type":"uint256","internalType":"uint256"}],"outputs":[{"name":"","type":"uint256","internalType":"uint256"}],"stateMutability":"view"},{"type":"function","name":"hasCommitted","inputs":[{"name":"roundId","type":"uint256","internalType":"uint256"},{"name":"voter","type":"address","internalType":"address"}],"outputs":[{"name":"","type":"bool","internalType":"bool"}],"stateMutability":"view"},{"type":"function","name":"hasRevealed","inputs":[{"name":"roundId","type":"uint256","internalType":"uint256"},{"name":"voter","type":"address","internalType":"address"}],"outputs":[{"name":"","type":"bool","internalType":"bool"}],"stateMutability":"view"},{"type":"function","name":"lastRoundId","inputs":[],"outputs":[{"name":"","type":"uint256","internalType":"uint256"}],"stateMutability":"view"},{"type":"function","name":"reveal","inputs":[{"name":"roundId","type":"uint256","internalType":"uint256"},{"name":"projects","type":"bytes32[]","internalType":"bytes32[]"},{"name":"choices","type":"uint8[]","internalType":"enum BallotCommitReveal.VoteChoice[]"},{"name":"salt","type":"bytes32","internalType":"bytes32"}],"outputs":[],"stateMutability":"nonpayable"},{"type":"function","name":"rounds","inputs":[{"name":"","type":"uint256","internalType":"uint256"}],"outputs":[{"name":"startCommit","type":"uint256","internalType":"uint256"},{"name":"endCommit","type":"uint256","internalType":"uint256"},{"name":"endReveal","type":"uint256","internalType":"uint256"},{"name":"finalized","type":"bool","internalType":"bool"},{"name":"countingMethod","type":"uint8","internalType":"enum BallotCommitReveal.CountingMethod"},{"name":"snapshotBlock","type":"uint256","internalType":"uint256"},{"name":"totalParticipants","type":"uint256","internalType":"uint256"},{"name":"totalRevealed","type":"uint256","internalType":"uint256"},{"name":"totalActiveMembers","type":"uint256","internalType":"uint256"},{"name":"cancellationThreshold","type":"uint256","internalType":"uint256"},{"name":"enableAutoCancellation","type":"bool","internalType":"bool"}],"stateMutability":"view"},{"type":"function","name":"sbt","inputs":[],"outputs":[{"name":"","type":"address","internalType":"contract IGovSBT"}],"stateMutability":"view"},{"type":"function","name":"setDefaultCancellationThreshold","inputs":[{"name":"threshold","type":"uint256","internalType":"uint256"}],"outputs":[],"stateMutability":"nonpayable"},{"type":"function","name":"setDefaultDurations","inputs":[{"name":"commitDuration","type":"uint256","internalType":"uint256"},{"name":"revealDuration","type":"uint256","internalType":"uint256"}],"outputs":[],"stateMutability":"nonpayable"},{"type":"function","name":"setTreasury","inputs":[{"name":"treasuryAddress","type":"address","internalType":"address"}],"outputs":[],"stateMutability":"nonpayable"},{"type":"function","name":"startRound","inputs":[{"name":"commitDuration","type":"uint256","internalType":"uint256"},{"name":"revealDuration","type":"uint256","internalType":"uint256"},{"name":"projectIds","type":"bytes32[]","internalType":"bytes32[]"},{"name":"countingMethod","type":"uint8","internalType":"enum BallotCommitReveal.CountingMethod"},{"name":"enableAutoCancellation","type":"bool","internalType":"bool"}],"outputs":[],"stateMutability":"nonpayable"},{"type":"function","name":"treasury","inputs":[],"outputs":[{"name":"","type":"address","internalType":"contract ITreasury"}],"stateMutability":"view"},{"type":"event","name":"ProjectCancellationTriggered","inputs":[{"name":"roundId","type":"uint256","indexed":true,"internalType":"uint256"},{"name":"projectId","type":"bytes32","indexed":true,"internalType":"bytes32"},{"name":"reason","type":"string","indexed":false,"internalType":"string"}],"anonymous":false},{"type":"event","name":"RoundStarted","inputs":[{"name":"roundId","type":"uint256","indexed":true,"internalType":"uint256"},{"name":"startCommit","type":"uint256","indexed":false,"internalType":"uint256"},{"name":"endCommit","type":"uint256","indexed":false,"internalType":"uint256"},{"name":"endReveal","type":"uint256","indexed":false,"internalType":"uint256"},{"name":"projectIds","type":"bytes32[]","indexed":false,"internalType":"bytes32[]"},{"name":"countingMethod","type":"uint8","indexed":false,"internalType":"enum BallotCommitReveal.CountingMethod"},{"name":"snapshotBlock","type":"uint256","indexed":false,"internalType":"uint256"}],"anonymous":false},{"type":"event","name":"VoteCommitted","inputs":[{"name":"roundId","type":"uint256","indexed":true,"internalType":"uint256"},{"name":"voter","type":"address","indexed":true,"internalType":"address"},{"name":"hash","type":"bytes32","indexed":false,"internalType":"bytes32"}],"anonymous":false},{"type":"event","name":"VoteFinalized","inputs":[{"name":"roundId","type":"uint256","indexed":true,"internalType":"uint256"},{"name":"projectIds","type":"bytes32[]","indexed":false,"internalType":"bytes32[]"},{"name":"forWeights","type":"uint256[]","indexed":false,"internalType":"uint256[]"},{"name":"againstWeights","type":"uint256[]","indexed":false,"internalType":"uint256[]"},{"name":"abstainedCounts","type":"uint256[]","indexed":false,"internalType":"uint256[]"},{"name":"notParticipatingCounts","type":"uint256[]","indexed":false,"internalType":"uint256[]"},{"name":"turnoutPercentage","type":"uint256","indexed":false,"internalType":"uint256"}],"anonymous":false},{"type":"event","name":"VoteRevealed","inputs":[{"name":"roundId","type":"uint256","indexed":true,"internalType":"uint256"},{"name":"voter","type":"address","indexed":true,"internalType":"address"},{"name":"projects","type":"bytes32[]","indexed":false,"internalType":"bytes32[]"},{"name":"choices","type":"uint8[]","indexed":false,"internalType":"enum BallotCommitReveal.VoteChoice[]"},{"name":"weight","type":"uint256","indexed":false,"internalType":"uint256"}],"anonymous":false}],"bytecode":{"object":"0x60803461008b57601f6116e438819003918201601f19168301916001600160401b0383118484101761008f5780849260209460405283398101031261008b57516001600160a01b0381169081900361008b5762093a806005556203f480600655604260075560018060a01b031933815f5416175f55600154161760015560405161164090816100a48239f35b5f80fd5b634e487b7160e01b5f52604160045260245ffdfe6080806040526004361015610012575f80fd5b5f3560e01c90816305261aea146110855750806316b5551d1461103957806331a52aa014610d64578063320e31b614610d32578063325edbc114610d00578063388ca80f14610ce357806347b7ba9214610cc65780635c18d05814610ca957806361d027b314610c81578063688acbae14610c0d57806388c3ffb014610b635780638c65c81f14610ab657806397da26d814610549578063a561426b14610516578063a99ef9f5146104cd578063b1324f7b146104a5578063d05d6ad914610488578063d2154dad1461040e578063f0f44260146103bd578063f14665001461035a578063f2f03877146101395763f851a4401461010e575f80fd5b34610135575f366003190112610135575f546040516001600160a01b039091168152602090f35b5f80fd5b3461013557610147366113c6565b90805f5260206004815260405f209060018201544211158061034f575b1561031557600154604051639bb0f59960e01b8152336004820152908290829060249082906001600160a01b03165afa90811561030a575f916102d4575b50156102a15760068201335f5280825260405f205461026857335f5281528360405f205560078201815260405f209182549260ff84161561020e575b50507f1f4e2aa7825ef02e85293e2de66cfbcb326af2632b558996e546bb1ef3e8764d91506040519384523393a3005b6001600e939460ff19161790550190815460018101809111610254577f1f4e2aa7825ef02e85293e2de66cfbcb326af2632b558996e546bb1ef3e8764d925584806101de565b634e487b7160e01b5f52601160045260245ffd5b60405162461bcd60e51b8152600481018390526011602482015270185b1c9958591e4818dbdb5b5a5d1d1959607a1b6044820152606490fd5b6064906040519062461bcd60e51b82526004820152600c60248201526b3737ba10309036b2b6b132b960a11b6044820152fd5b90508181813d8311610303575b6102eb818361143a565b810103126101355751801515810361013557856101a2565b503d6102e1565b6040513d5f823e3d90fd5b6064906040519062461bcd60e51b82526004820152601360248201527218dbdb5b5a5d081c1a185cd94818db1bdcd959606a1b6044820152fd5b508154421015610164565b34610135576020366003190112610135576004355f52600460205260405f206010810154908115155f146103b357600f0154606481029080820460641490151715610254576020916103ab9161141c565b604051908152f35b505060205f6103ab565b34610135576020366003190112610135576004356001600160a01b0381811691829003610135576103f2905f54163314611551565b6bffffffffffffffffffffffff60a01b60025416176002555f80f35b346101355760203660031901126101355760043561043660018060a01b035f54163314611551565b6064811161044357600755005b60405162461bcd60e51b815260206004820152601860248201527f7468726573686f6c64206d757374206265203c3d2031303000000000000000006044820152606490fd5b34610135575f366003190112610135576020600554604051908152f35b34610135575f366003190112610135576001546040516001600160a01b039091168152602090f35b34610135576040366003190112610135576104e661137f565b6004355f526004602052600660405f20019060018060a01b03165f52602052602060405f20541515604051908152f35b346101355760403660031901126101355761053b60018060a01b035f54163314611551565b600435600555602435600655005b346101355760803660031901126101355767ffffffffffffffff6024358181116101355761057b903690600401611395565b9160443590811161013557610594903690600401611395565b92906064936004355f52600460205260405f20936001850154421180610aa8575b15610a6e57818403610a3857335f526006850160205260405f205415610a0257335f526008850160205260ff60405f2054166109cb5760405160208101906080825261063a61060860a083018886611597565b82610621601f199283838203016040840152888a6115bb565b8b3560608301523360808301520390810183528261143a565b519020335f526006860160205260405f2054036109965760015460405163dd4bc10160e01b815233600482015293929190602090859060249082906001600160a01b03165afa93841561030a575f94610962575b50335f526008860160205260405f20600160ff19825416179055600f86018054906001820180921161025457555f5b85811061073157506106f09060066106fe959697335f52016020525f604081205560405196606088526060880191611597565b9185830360208701526115bb565b9060408301527f64896df8d49c8a36a773b77f84e1aba88f3480ab764bff169aab41ee4147964b339280600435930390a3005b61073c8187846115fa565b35906107498185876115fa565b356004811015610135575f600382036108de57835f5260098a0160205260405f2061077589825461158a565b90556002546001600160a01b03168061084e575b505b60ff60038b015460081c16600281101561083a576001146107b3575b505060019150016106bd565b61083a57600381036107f9575085600381020460031486151715610254576001915f52600d880160205260405f206107ef60038802825461158a565b90555b88806107a7565b60011461080a575b600191506107f2565b85800460011486151715610254576001915f52600d880160205260405f2061083387825461158a565b9055610801565b634e487b7160e01b5f52602160045260245ffd5b602060449160405192838092638cec102d60e01b82523360048301528960248301525afa90811561030a575f916108ac575b5061088c575b8a610789565b835f5260098a0160205260405f206108a589825461158a565b9055610886565b90506020813d6020116108d6575b816108c76020938361143a565b8101031261013557518b610880565b3d91506108ba565b505f6002820361090957835f52600a8a0160205260405f2061090189825461158a565b90555b61078b565b505f6001820361093757835f52600b8a0160205260405f20805460018101811161025457600101905561078b565b505f8161090457835f52600c8a0160205260405f20805460018101811161025457600101905561078b565b9093506020813d60201161098e575b8161097e6020938361143a565b810103126101355751928661068e565b3d9150610971565b60405162461bcd60e51b815260206004820152600e60248201526d1a5b9d985b1a59081c995d99585b60921b60448201528690fd5b60405162461bcd60e51b815260206004820152601060248201526f185b1c9958591e481c995d99585b195960821b60448201528690fd5b60405162461bcd60e51b815260206004820152600f60248201526e1b9bc818dbdb5b5a5d08199bdd5b99608a1b60448201528690fd5b60405162461bcd60e51b815260206004820152600f60248201526e0d8cadccee8d040dad2e6dac2e8c6d608b1b60448201528690fd5b60405162461bcd60e51b81526020600482015260136024820152721c995d99585b081c1a185cd94818db1bdcd959606a1b60448201528690fd5b5060028501544211156105b5565b34610135576020366003190112610135576004355f52600460205261016060405f20805490600181015490600281015460038201546005830154600e84015490610b3e600f8601549360108701549560ff601260118a015499015416986040519a8b5260208b015260408a015260ff8116151560608a015260ff60808a019160081c1661140f565b60a087015260c086015260e08501526101008401526101208301521515610140820152f35b34610135576020366003190112610135576004355f52600460205260405f208054600182015490600283015492600381015491600e820154610bf9610be8600f85015493610bb860046010880154970161145c565b90604051998a99610120928b5260208b015260408a015260ff8816151560608a01528060808a01528801906113dc565b9460ff60a088019160081c1661140f565b60c085015260e08401526101008301520390f35b346101355760a0610c1d366113c6565b905f5260206004815260405f20915f5260098201815260405f205491600a8101825260405f2054600b8201835260405f205490600c83018452600d60405f20549301845260405f205493604051958652850152604084015260608301526080820152f35b34610135575f366003190112610135576002546040516001600160a01b039091168152602090f35b34610135575f366003190112610135576020600654604051908152f35b34610135575f366003190112610135576020600754604051908152f35b34610135575f366003190112610135576020600354604051908152f35b3461013557610d0e366113c6565b905f526004602052600a60405f2001905f52602052602060405f2054604051908152f35b3461013557610d40366113c6565b905f526004602052600960405f2001905f52602052602060405f2054604051908152f35b346101355760a03660031901126101355760043560243567ffffffffffffffff60443581811161013557610d9c903690600401611395565b92906064359060028210156101355760843593841515809503610135575f546001600160a01b0390610dd19082163314611551565b861561100657600354956001966001810180911161025457806003555f526020966004885260405f2099428b558015155f14610ff757610e15610e29915b4261158a565b60018c01818155988015610fed579061158a565b9360028b0194855560048b01908a11610fd957680100000000000000008a11610fd95780548a8255808b10610fb2575b5085905f52885f20905f5b8b8110610fa1575050505060038901805461ff008760081b169061ff0019161790554360058a0155601289019060ff8019835416911617905560075460118901556001541680610f1b575b50610f10917f457894a7991996b6c52bd7dace857cc8d70666111d34dbdc8d511a7f8a38541a96610f0592600354995496549054906040519889988952880152604087015260c0606087015260c0860191611597565b91608084019061140f565b4360a08301520390a2005b856004916040519283809263489801df60e01b82525afa90811561030a575f91610f4e575b506010880155610f10610eaf565b919290508582813d8311610f9a575b610f67818361143a565b810103126101355790519091907f457894a7991996b6c52bd7dace857cc8d70666111d34dbdc8d511a7f8a38541a610f40565b503d610f5d565b813583820155908a01908301610e64565b815f52828b8b5f2092830192015b828110610fce575050610e59565b5f8155018390610fc0565b634e487b7160e01b5f52604160045260245ffd5b506006549061158a565b50610e29610e15600554610e0f565b60405162461bcd60e51b815260206004820152600b60248201526a6e6f2070726f6a6563747360a81b6044820152606490fd5b346101355760403660031901126101355761105261137f565b6004355f526004602052600860405f20019060018060a01b03165f52602052602060ff60405f2054166040519015158152f35b34610135576020366003190112610135576004355f52600460205260405f20906002820154421115611347575060038101805460ff811661130e5760ff191660011790556010810154801561130657600f82015490606482029180830460641490151715610254576110f69161141c565b905b6111046004820161145c565b9161110f83516114c4565b9061111a84516114c4565b9261112585516114c4565b9161113086516114c4565b601283015460ff16935f5b885181101561127657806111516001928b6114f6565b51805f526009870160205260405f205461116b838b6114f6565b52805f52600a870160205260405f2054611185838c6114f6565b52805f52600b870160205260405f205461119f83866114f6565b52805f52600c870160205260405f20546111b983876114f6565b528780611268575b80611246575b6111d3575b500161113b565b60405160208152602860208201527f6d616a6f7269747920616761696e737420776974682073756666696369656e74604082015267081d1d5c9b9bdd5d60c21b60608201527f48322d3bd3b5b6d7c2b1eaab57b61845affa69e66f4eea9e5d8ae3849a5f0ec7608060043592a38a6111cc565b50805f52600a870160205260405f20546009880160205260405f2054106111c7565b5060118701548610156111c1565b506112f67f4f54b9c3675b047990aa549f9481312a5bb0ec95818cddb2f45fa8d19f101801926112e88a936112da8b6112cc8c6112be6040519960c08b5260c08b01906113dc565b9089820360208b015261151e565b90878203604089015261151e565b90858203606087015261151e565b90838203608085015261151e565b9260a082015280600435930390a2005b505f906110f8565b60405162461bcd60e51b8152602060048201526011602482015270185b1c9958591e48199a5b985b1a5e9959607a1b6044820152606490fd5b62461bcd60e51b81526020600482015260136024820152721d9bdd1a5b99c81b9bdd08199a5b9a5cda1959606a1b6044820152606490fd5b602435906001600160a01b038216820361013557565b9181601f840112156101355782359167ffffffffffffffff8311610135576020808501948460051b01011161013557565b6040906003190112610135576004359060243590565b9081518082526020808093019301915f5b8281106113fb575050505090565b8351855293810193928101926001016113ed565b90600282101561083a5752565b8115611426570490565b634e487b7160e01b5f52601260045260245ffd5b90601f8019910116810190811067ffffffffffffffff821117610fd957604052565b90604051918281549182825260209260208301915f5260205f20935f905b828210611492575050506114909250038361143a565b565b85548452600195860195889550938101939091019061147a565b67ffffffffffffffff8111610fd95760051b60200190565b906114ce826114ac565b6114db604051918261143a565b82815280926114ec601f19916114ac565b0190602036910137565b805182101561150a5760209160051b010190565b634e487b7160e01b5f52603260045260245ffd5b9081518082526020808093019301915f5b82811061153d575050505090565b83518552938101939281019260010161152f565b1561155857565b60405162461bcd60e51b815260206004820152600a60248201526937b7363c9030b236b4b760b11b6044820152606490fd5b9190820180921161025457565b81835290916001600160fb1b0383116101355760209260051b809284830137010190565b9190808252602080920192915f5b8281106115d7575050505090565b9091929384359060048210156101355790815282019382019291906001016115c9565b919081101561150a5760051b019056fea2646970667358221220bc927f752d8e6e1420244603fc7ff027fc3420595e1d9948598ebfc85008a87864736f6c63430008170033","linkReferences":{}},"methodIdentifiers":{"admin()":"f851a440","againstOf(uint256,bytes32)":"325edbc1","commit(uint256,bytes32)":"f2f03877","defaultCancellationThreshold()":"47b7ba92","defaultCommitDuration()":"d05d6ad9","defaultRevealDuration()":"5c18d058","finalize(uint256)":"05261aea","forOf(uint256,bytes32)":"320e31b6","getProjectVoteResults(uint256,bytes32)":"688acbae","getRoundInfo(uint256)":"88c3ffb0","getTurnoutPercentage(uint256)":"f1466500","hasCommitted(uint256,address)":"a99ef9f5","hasRevealed(uint256,address)":"16b5551d","lastRoundId()":"388ca80f","reveal(uint256,bytes32[],uint8[],bytes32)":"97da26d8","rounds(uint256)":"8c65c81f","sbt()":"b1324f7b","setDefaultCancellationThreshold(uint256)":"d2154dad","setDefaultDurations(uint256,uint256)":"a561426b","setTreasury(address)":"f0f44260","startRound(uint256,uint256,bytes32[],uint8,bool)":"31a52aa0","treasury()":"61d027b3"},"id":16}