{"abi":[{"type":"constructor","inputs":[],"stateMutability":"nonpayable"},{"type":"function","name":"admin","inputs":[],"outputs":[{"name":"","type":"address","internalType":"address"}],"stateMutability":"view"},{"type":"function","name":"allocate","inputs":[{"name":"projectId","type":"bytes32","internalType":"bytes32"},{"name":"amount","type":"uint256","internalType":"uint256"}],"outputs":[{"name":"receiptId","type":"bytes32","internalType":"bytes32"}],"stateMutability":"nonpayable"},{"type":"function","name":"allocateMultiple","inputs":[{"name":"projectIds","type":"bytes32[]","internalType":"bytes32[]"},{"name":"amounts","type":"uint256[]","internalType":"uint256[]"}],"outputs":[{"name":"receiptId","type":"bytes32","internalType":"bytes32"}],"stateMutability":"nonpayable"},{"type":"function","name":"allocationOf","inputs":[{"name":"","type":"address","internalType":"address"},{"name":"","type":"bytes32","internalType":"bytes32"}],"outputs":[{"name":"","type":"uint256","internalType":"uint256"}],"stateMutability":"view"},{"type":"function","name":"balance","inputs":[],"outputs":[{"name":"","type":"uint256","internalType":"uint256"}],"stateMutability":"view"},{"type":"function","name":"defaultRefundPolicy","inputs":[],"outputs":[{"name":"","type":"uint8","internalType":"enum Treasury.RefundPolicy"}],"stateMutability":"view"},{"type":"function","name":"donate","inputs":[],"outputs":[{"name":"receiptId","type":"bytes32","internalType":"bytes32"}],"stateMutability":"payable"},{"type":"function","name":"donationReceipts","inputs":[{"name":"","type":"address","internalType":"address"},{"name":"","type":"uint256","internalType":"uint256"}],"outputs":[{"name":"","type":"bytes32","internalType":"bytes32"}],"stateMutability":"view"},{"type":"function","name":"donorRefundPolicy","inputs":[{"name":"","type":"address","internalType":"address"}],"outputs":[{"name":"","type":"uint8","internalType":"enum Treasury.RefundPolicy"}],"stateMutability":"view"},{"type":"function","name":"getAllocatedAmount","inputs":[{"name":"donor","type":"address","internalType":"address"},{"name":"projectId","type":"bytes32","internalType":"bytes32"}],"outputs":[{"name":"","type":"uint256","internalType":"uint256"}],"stateMutability":"view"},{"type":"function","name":"getDonationReceipts","inputs":[{"name":"donor","type":"address","internalType":"address"}],"outputs":[{"name":"","type":"bytes32[]","internalType":"bytes32[]"}],"stateMutability":"view"},{"type":"function","name":"getDonorStats","inputs":[{"name":"donor","type":"address","internalType":"address"}],"outputs":[{"name":"totalDonated","type":"uint256","internalType":"uint256"},{"name":"totalUnallocated","type":"uint256","internalType":"uint256"},{"name":"personalBalanceAmount","type":"uint256","internalType":"uint256"},{"name":"refundPolicy","type":"uint8","internalType":"enum Treasury.RefundPolicy"}],"stateMutability":"view"},{"type":"function","name":"getProjectFunding","inputs":[{"name":"projectId","type":"bytes32","internalType":"bytes32"}],"outputs":[{"name":"allocated","type":"uint256","internalType":"uint256"},{"name":"paidOut","type":"uint256","internalType":"uint256"}],"stateMutability":"view"},{"type":"function","name":"payout","inputs":[{"name":"to","type":"address","internalType":"address payable"},{"name":"projectId","type":"bytes32","internalType":"bytes32"},{"name":"amount","type":"uint256","internalType":"uint256"},{"name":"payoutId","type":"bytes32","internalType":"bytes32"}],"outputs":[],"stateMutability":"nonpayable"},{"type":"function","name":"personalBalance","inputs":[{"name":"","type":"address","internalType":"address"}],"outputs":[{"name":"","type":"uint256","internalType":"uint256"}],"stateMutability":"view"},{"type":"function","name":"projectsContract","inputs":[],"outputs":[{"name":"","type":"address","internalType":"contract IProjects"}],"stateMutability":"view"},{"type":"function","name":"reassign","inputs":[{"name":"fromProjectId","type":"bytes32","internalType":"bytes32"},{"name":"toProjectId","type":"bytes32","internalType":"bytes32"},{"name":"amount","type":"uint256","internalType":"uint256"}],"outputs":[],"stateMutability":"nonpayable"},{"type":"function","name":"receipts","inputs":[{"name":"","type":"bytes32","internalType":"bytes32"}],"outputs":[{"name":"donor","type":"address","internalType":"address"},{"name":"amount","type":"uint256","internalType":"uint256"},{"name":"timestamp","type":"uint256","internalType":"uint256"},{"name":"txHash","type":"bytes32","internalType":"bytes32"}],"stateMutability":"view"},{"type":"function","name":"refundCancelledProject","inputs":[{"name":"projectId","type":"bytes32","internalType":"bytes32"}],"outputs":[],"stateMutability":"nonpayable"},{"type":"function","name":"sbtContract","inputs":[],"outputs":[{"name":"","type":"address","internalType":"contract IGovernanceSBT"}],"stateMutability":"view"},{"type":"function","name":"setContracts","inputs":[{"name":"_projectsContract","type":"address","internalType":"address"},{"name":"_sbtContract","type":"address","internalType":"address"}],"outputs":[],"stateMutability":"nonpayable"},{"type":"function","name":"setRefundPolicy","inputs":[{"name":"policy","type":"uint8","internalType":"enum Treasury.RefundPolicy"}],"outputs":[],"stateMutability":"nonpayable"},{"type":"function","name":"topUp","inputs":[{"name":"projectId","type":"bytes32","internalType":"bytes32"},{"name":"amount","type":"uint256","internalType":"uint256"}],"outputs":[{"name":"receiptId","type":"bytes32","internalType":"bytes32"}],"stateMutability":"nonpayable"},{"type":"function","name":"totalAllocatedTo","inputs":[{"name":"","type":"bytes32","internalType":"bytes32"}],"outputs":[{"name":"","type":"uint256","internalType":"uint256"}],"stateMutability":"view"},{"type":"function","name":"totalDonatedBy","inputs":[{"name":"","type":"address","internalType":"address"}],"outputs":[{"name":"","type":"uint256","internalType":"uint256"}],"stateMutability":"view"},{"type":"function","name":"totalPaidOutFrom","inputs":[{"name":"","type":"bytes32","internalType":"bytes32"}],"outputs":[{"name":"","type":"uint256","internalType":"uint256"}],"stateMutability":"view"},{"type":"function","name":"totalUnallocatedBy","inputs":[{"name":"","type":"address","internalType":"address"}],"outputs":[{"name":"","type":"uint256","internalType":"uint256"}],"stateMutability":"view"},{"type":"function","name":"withdrawPersonalBalance","inputs":[],"outputs":[],"stateMutability":"nonpayable"},{"type":"event","name":"AllocationReassigned","inputs":[{"name":"fromProjectId","type":"bytes32","indexed":true,"internalType":"bytes32"},{"name":"toProjectId","type":"bytes32","indexed":true,"internalType":"bytes32"},{"name":"amount","type":"uint256","indexed":false,"internalType":"uint256"},{"name":"donor","type":"address","indexed":true,"internalType":"address"}],"anonymous":false},{"type":"event","name":"AllocationRefunded","inputs":[{"name":"projectId","type":"bytes32","indexed":true,"internalType":"bytes32"},{"name":"amount","type":"uint256","indexed":false,"internalType":"uint256"},{"name":"donor","type":"address","indexed":true,"internalType":"address"},{"name":"reason","type":"string","indexed":false,"internalType":"string"}],"anonymous":false},{"type":"event","name":"AllocationReleased","inputs":[{"name":"projectId","type":"bytes32","indexed":true,"internalType":"bytes32"},{"name":"amount","type":"uint256","indexed":false,"internalType":"uint256"},{"name":"to","type":"address","indexed":true,"internalType":"address"},{"name":"payoutId","type":"bytes32","indexed":true,"internalType":"bytes32"}],"anonymous":false},{"type":"event","name":"AllocationSet","inputs":[{"name":"projectId","type":"bytes32","indexed":true,"internalType":"bytes32"},{"name":"amount","type":"uint256","indexed":false,"internalType":"uint256"},{"name":"donor","type":"address","indexed":true,"internalType":"address"},{"name":"receiptId","type":"bytes32","indexed":true,"internalType":"bytes32"}],"anonymous":false},{"type":"event","name":"AllocationTopUp","inputs":[{"name":"projectId","type":"bytes32","indexed":true,"internalType":"bytes32"},{"name":"amount","type":"uint256","indexed":false,"internalType":"uint256"},{"name":"donor","type":"address","indexed":true,"internalType":"address"},{"name":"receiptId","type":"bytes32","indexed":true,"internalType":"bytes32"}],"anonymous":false},{"type":"event","name":"DonationReceived","inputs":[{"name":"donor","type":"address","indexed":true,"internalType":"address"},{"name":"amount","type":"uint256","indexed":false,"internalType":"uint256"},{"name":"receiptId","type":"bytes32","indexed":true,"internalType":"bytes32"}],"anonymous":false},{"type":"event","name":"PersonalBalanceUpdated","inputs":[{"name":"donor","type":"address","indexed":true,"internalType":"address"},{"name":"newBalance","type":"uint256","indexed":false,"internalType":"uint256"}],"anonymous":false},{"type":"event","name":"RefundPolicySet","inputs":[{"name":"donor","type":"address","indexed":true,"internalType":"address"},{"name":"policy","type":"uint8","indexed":false,"internalType":"enum Treasury.RefundPolicy"}],"anonymous":false}],"bytecode":{"object":"0x60808060405234610031576008805460ff191690555f80546001600160a01b0319163317905561264790816100368239f35b5f80fdfe6080806040526004361015610012575f80fd5b5f905f3560e01c9081630615836014612124575080630d92a2c7146120b95780631565d8e11461208f578063178832dc14611c9e5780633613a4c314611a5c5780633d0470f8146119aa57806343abf339146118fc57806349c4cf4b146113ff5780634bd335b8146118d35780637b4424b81461189a5780637f7dccc1146114685780638598a90c146114425780638cec102d146113ff578063a5c08f01146113c6578063b015ceb71461138e578063b67644b914610eda578063b69ef8a814610ebe578063be1ce6c014610e94578063c024b38e1461089a578063c06ec9b0146106d7578063c8eb0c8814610665578063d8952a4914610601578063eaecc6ee146105bd578063ed88c68e1461025f578063ef6cf04d1461020a578063f103c59a146101b4578063f851a4401461018d5763fb580ace14610152575f80fd5b3461018a57602036600319011261018a576020906040906001600160a01b03610179612147565b168152600483522054604051908152f35b80fd5b503461018a578060031936011261018a57546040516001600160a01b039091168152602090f35b503461018a57604036600319011261018a576101ce612147565b6001600160a01b03168152600b602052604081208054602435929083101561018a5760206101fc84846121ea565b90546040519160031b1c8152f35b503461018a57602036600319011261018a5760406080916004358152600c6020522060018060a01b03815416906001810154906003600282015491015491604051938452602084015260408301526060820152f35b508060031936011261018a57341561058d5760405190602091828101903360601b8252426034820152346054820152436074820152607481526102a181612241565b5190209033815260038352604081206102bb34825461240a565b905533815260048352604081206102d334825461240a565b90555f19430143811161057957604051906102ed82612277565b828252604051916102fd83612277565b8383526040519261030d84612226565b33845286840192348452604085019042825260608601904081526080860193845260a08601928352878752600c8952604087209160018060a01b03809751166001600160601b0360a01b8454161783556001955160018401555160028301555160038201556004810192519081516001600160401b039485821161056557600160401b93848311610551578b908254848455808510610527575b50019089528a8920878a5b84811061051557505050505060050191519081519384116105015783116104ed57879082548484558085106104c3575b5001908552868520855b8381106104b2575050505050338252600b845261040c83604084206125a2565b600254168061044c575b5050806040513481527f9d3755366339ed0dd6dc954052854332eb4a16f07460e106497858a159815df0843392a3604051908152f35b338252600384526040822054813b156104ae578291604483926040519485938492639776e94b60e01b845233600485015260248401525af180156104a357156104165761049982916121ff565b61018a5780610416565b6040513d84823e3d90fd5b8280fd5b8251828201559188019184016103ec565b8388528585848a2092830192015b8281106104df5750506103e2565b5f81558b94508791016104d1565b634e487b7160e01b86526041600452602486fd5b634e487b7160e01b87526041600452602487fd5b8d8451940193818401550188906103b2565b8985848e8781522092830192015b8281106105435750506103a7565b5f81558f94508b9101610535565b634e487b7160e01b8a52604160045260248afd5b634e487b7160e01b89526041600452602489fd5b634e487b7160e01b82526011600452602482fd5b60405162461bcd60e51b81526020600482015260086024820152676e6f2076616c756560c01b6044820152606490fd5b503461018a57602036600319011261018a5760209060ff906040906001600160a01b036105e8612147565b168152600984522054166105ff6040518092612173565bf35b503461018a57604036600319011261018a5761061b612147565b6024356001600160a01b038181169291839003610661576106408185541633146125d8565b6001600160601b0360a01b9116816001541617600155600254161760025580f35b5f80fd5b503461018a576020806003193601126106d357608091906105ff906001600160a01b03610690612147565b16835260038152604083205492600482526040812054600a835260ff60408084205493600986522054169260405195865285015260408401526060830190612173565b5080fd5b503461018a57608036600319011261018a576001600160a01b03600435818116908190036104ae57602435604435926107148186541633146125d8565b834710610855578185526020906005825284604087205410610810578590838252600683526040822061074887825461240a565b9055600154168061079e575b50906107908280807f215821ae3d310a08385c95ef6573e117ec604cdc6229372ceb6cd6776477a4ef9589895af161078a612417565b50612446565b60405194855260643594a480f35b838252600583526040822054600684526040832054823b1561080c5760405163c69adb2d60e01b815260048101879052602481019290925260448201529082908290606490829084905af180156104a35715610754576107fd906121ff565b61080857845f610754565b8480fd5b8380fd5b60405162461bcd60e51b815260048101839052601f60248201527f696e73756666696369656e742070726f6a65637420616c6c6f636174696f6e006044820152606490fd5b60405162461bcd60e51b815260206004820152601d60248201527f696e73756666696369656e742074726561737572792062616c616e63650000006044820152606490fd5b503461018a57604036600319011261018a576004356001600160401b0381116106d3576108cb903690600401612194565b906024356001600160401b03811161080c576108eb903690600401612194565b808403610e5d578315610e2a578493855b828110610dbf5750338652600460205261091c85604088205410156124bc565b60405160208101903360601b82524260348201528660548201526f36bab63a34afb0b63637b1b0ba34b7b760811b60748201526064815261095c81612241565b519020943387526004602052604087206109778282546123e9565b90555f194301438111610dab576040519161099183612226565b33835260208301524260408301524060608201526109ae8261258b565b6109bb6040519182612292565b82815260208101368460051b880111610caf5786905b8460051b88018210610d9b57505060808201526109ed8361258b565b6109fa6040519182612292565b83815260208101368560051b870111610caf5785905b8560051b87018210610d8b57505060a0820152858752600c602052604087209060018060a01b038151166001600160601b0360a01b83541617825560208101516001830155604081015160028301556060810151600383015560808101518051906001600160401b03821161055157600160401b8211610551576004840154826004860155808310610d61575b50602001600484018a5260208a208a5b838110610d4d575050505060a00151908151916001600160401b03831161056557600160401b8311610565576005820154836005840155808410610d23575b506020600591019101885260208820885b838110610d0f5750505050855b818110610b3057602086610b288160408b338152600b8652206125a2565b604051908152f35b610b3b8183876125c8565b3590610b488185876125c8565b359160248960018060a01b03600154166040519283809263b96ea12d60e01b82528660048301525afa908115610d04578a91610cd4575b506008811015610cc057908891610ba76005600692610ba084821415612508565b1415612548565b338b52600760205260408b20828c5260205260408b20610bc886825461240a565b9055818b52600560205260408b20610be186825461240a565b90556001546001600160a01b0316908b9082610c31575b505050926001936040519182527f4413839756782a16f52f18bc5c2375a248540cefb17a001833f00291acb5cae460203393a401610b0a565b9091935082825260056020526040822054906020526040822054843b156104ae5760405163c69adb2d60e01b815260048101859052602481019290925260448201529281908490606490829084905af1928315610cb3578a93610c96575b8190610bf8565b610ca2919293506121ff565b610caf578790895f610c8f565b8880fd5b50604051903d90823e3d90fd5b634e487b7160e01b8a52602160045260248afd5b610cf091503d808c833e610ce88183612292565b81019061232f565b50505050509750505050505050505f610b7f565b6040513d8c823e3d90fd5b600190602084519401938184015501610afd565b600583018a5260208a20908482015b8183018110610d42575050610aec565b5f8155600101610d32565b600190602084519401938184015501610aad565b600485018b5260208b20908382015b8183018110610d80575050610a9d565b5f8155600101610d70565b8135815260209182019101610a10565b81358152602091820191016109d1565b634e487b7160e01b88526011600452602488fd5b94610dcb8684866125c8565b3515610df057610de9600191610de28886886125c8565b359061240a565b95016108fc565b60405162461bcd60e51b81526020600482015260126024820152710616d6f756e74206d757374206265203e20360741b6044820152606490fd5b60405162461bcd60e51b815260206004820152600b60248201526a6e6f2070726f6a6563747360a81b6044820152606490fd5b60405162461bcd60e51b815260206004820152600f60248201526e0d8cadccee8d040dad2e6dac2e8c6d608b1b6044820152606490fd5b503461018a57602036600319011261018a5760406020916004358152600683522054604051908152f35b503461018a578060031936011261018a57602047604051908152f35b503461018a57610ee93661215d565b610ef7819392931515612484565b3382526004602052610f0f81604084205410156124bc565b3382526007602052604082208383526020526040822054156113505760015460405163b96ea12d60e01b8152600481018590526001600160a01b03949184908290602490829089165afa90811561134557849161131d575b50600881101561130957600581610ba06006610f84941415612508565b60405160208101903360601b8252426034820152836054820152826074820152640746f7075760dc1b609482015260798152610fbf81612241565b51902092338152600460205260408120610fda8482546123e9565b905533815260076020526040812082825260205260408120610ffd84825461240a565b905581815260056020526040812061101684825461240a565b9055846001541680611290575b505f194301944386116105795760405161103c8161225c565b6001815260203681830137604051966110548861225c565b60018852602036818a01376040519761106c89612226565b3389526020890187815260408a019142835260608b019340845260808b0194855260a08b0152888652600c60205260408620948a51166001600160601b0360a01b865416178555516001850155516002840155516003830155518051906001600160401b03821161127c57600160401b821161127c576004830154826004850155808310611252575b5060200160048301845260208420845b83811061123e5750505050600560a091019501518051906001600160401b03821161122a57600160401b821161122a578654828855808310611204575b506020019582526020822095825b8281106111f0576020878088886111bd8360408b828152600c89528461119361117d6004858520016121c4565b819391549060031b91821b915f19901b19161790565b9055828152600c8952856111ae61117d6005858520016121c4565b9055338152600b8952206125a2565b6040519182527fa006aba1bf780db189f8bcc56a28ec17a75134751b225cfd1aa67eca818d1b30853393a4604051908152f35b60019060208351930192818a015501611150565b878452826020852091820191015b81811061121f5750611142565b5f8155600101611212565b634e487b7160e01b83526041600452602483fd5b600190602084519401938184015501611105565b60048401855260208520908382015b81830181106112715750506110f5565b5f8155600101611261565b634e487b7160e01b84526041600452602484fd5b82825260056020526040822054906006602052604083205491813b1561080c5760405163c69adb2d60e01b8152600481018690526024810191909152604481019290925282908290606490829084905af180156104a3579082916112f5575b50611023565b6112fe906121ff565b61018a57805f6112ef565b634e487b7160e01b84526021600452602484fd5b61133191503d8086833e610ce88183612292565b50505050509750505050505050505f610f67565b6040513d86823e3d90fd5b60405162461bcd60e51b815260206004820152601660248201527537379032bc34b9ba34b7339030b63637b1b0ba34b7b760511b6044820152606490fd5b503461018a57602036600319011261018a57604090600435815260056020528180822054916006602052205482519182526020820152f35b503461018a57602036600319011261018a576020906040906001600160a01b036113ee612147565b168152600a83522054604051908152f35b503461018a57604036600319011261018a576020906040906001600160a01b03611427612147565b16815260078352818120602435825283522054604051908152f35b503461018a578060031936011261018a57602060ff600854166105ff6040518092612173565b503461018a576114773661215d565b611485819392931515612484565b3382526020926004845261149f82604085205410156124bc565b6001805460405163b96ea12d60e01b8152600481018490526001600160a01b039592918390829060249082908a165afa90811561188f578391611867575b50600881101561185357600581610ba060066114fa941415612508565b604051868101903360601b82524260348201528560548201528460748201526930b63637b1b0ba34b7b760b11b6094820152607e815261153981612241565b5190209433835260048752604083206115538682546123e9565b9055338352600787526040832084845287526040832061157486825461240a565b9055838352600587526040832061158c86825461240a565b905580825416806117d8575b505f1943014381116117c457604051916115b18361225c565b838352883681850137604051916115c78361225c565b848352893681850137604051916115dd83612226565b3383528a8301898152604084019142835260608501934084526080850196875260a085019586528b8952600c8d52604089209451166001600160601b0360a01b85541617845551868401555160028301555160038201556004810192519081516001600160401b03948582116117b057600160401b93848311610565578c90825484845580851061177d575b50019088528b8820878d8a905b85821061176b5750505050505060050191519081519384116104ed578311611757578890825484845580851061172d575b5090889796959493929101908452888420845b83811061171957505050505083604082826116e69452600c89528461119361117d6004858520016121c4565b6040519182527f4413839756782a16f52f18bc5c2375a248540cefb17a001833f00291acb5cae4853393a4604051908152f35b825181830155899850918a019184016116ba565b838752858584892092830192015b8281106117495750506116a7565b5f81558c945087910161173b565b634e487b7160e01b85526041600452602485fd5b8451940193818401550188908e611676565b838b52828b20908a8683015b828401811061179a57505050611669565b9091929394505f815501908f9392918b90611789565b634e487b7160e01b88526041600452602488fd5b634e487b7160e01b84526011600452602484fd5b8484526005885260408420549060068952604085205491813b1561184f5760405163c69adb2d60e01b8152600481018890526024810191909152604481019290925284908290606490829084905af180156113455790849161183b575b50611598565b611844906121ff565b6104ae57825f611835565b8580fd5b634e487b7160e01b83526021600452602483fd5b61187b91503d8085833e610ce88183612292565b50505050509750505050505050505f6114dd565b6040513d85823e3d90fd5b503461018a57602036600319011261018a576020906040906001600160a01b036118c2612147565b168152600383522054604051908152f35b503461018a578060031936011261018a576001546040516001600160a01b039091168152602090f35b503461018a576020806003193601126106d3576001600160a01b0361191f612147565b168252600b81526040822060405192838383549182815201908193835284832090835b8181106119965750505084611958910385612292565b60405193838594850191818652518092526040850193925b82811061197f57505050500390f35b835185528695509381019392810192600101611970565b825484529286019260019283019201611942565b503461018a578060031936011261018a57338152600a60205260408120548015611a1e57818080806119ef94338252600a602052816040812055335af161078a612417565b6040518181527f33657843e63dc3faaeca8dd50006004a189724a1bf6e9e348800bf4736eae86d60203392a280f35b60405162461bcd60e51b81526020600482015260166024820152756e6f2062616c616e636520746f20776974686472617760501b6044820152606490fd5b503461018a576020806003193601126106d35760015460405163b96ea12d60e01b815260048035908201819052918490829060249082906001600160a01b03165afa908115611345578491611c76575b50600881101561130957600603611c3957338352600782526040832081845282526040832054918215611bf557338452600781526040842082855281528360408120556005815260408420611b028482546123e9565b90553384526009815260ff6040852054166002811015611be15760409190611bc557338552600a8152818520611b3985825461240a565b9055338552600a81528185205482519081527f33657843e63dc3faaeca8dd50006004a189724a1bf6e9e348800bf4736eae86d823392a25b815193845283015260116040830152701c1c9bda9958dd0818d85b98d95b1b1959607a1b606083015233917f7c7719dbc6471a597f46a63ddfa1dff4c707ac22aee099dc537b422496c6368390608090a380f35b33855260048152818520611bda85825461240a565b9055611b71565b634e487b7160e01b85526021600452602485fd5b6064906040519062461bcd60e51b82526004820152601760248201527f6e6f20616c6c6f636174696f6e20746f20726566756e640000000000000000006044820152fd5b60405162461bcd60e51b81526004810183905260156024820152741c1c9bda9958dd081b9bdd0818d85b98d95b1b1959605a1b6044820152606490fd5b611c8a91503d8086833e610ce88183612292565b50505050509750505050505050505f611aac565b50346106615760603660031901126106615760043560249081359060443592335f526020906007825260405f20835f5282528460405f20541061204c5760018060a01b038060015416916040519263b96ea12d60e01b8085528660048601525f858481855afa948515611ef3575f95612022575b50600885101561200f576005809514611fc1575f90836040518094819382528b60048301525afa908115611ef3575f91611f99575b506008811015611f855760068114611f41578314611efe5750335f526007835260405f20845f52835260405f20611d7f8782546123e9565b9055835f5281835260405f20611d968782546123e9565b9055335f526007835260405f20855f52835260405f20611db787825461240a565b9055845f5281835260405f20611dce87825461240a565b905580600154169081611e0d575b5050507f7d34b1b7c08899d85573aae210dd2fb0d4f41d8175dfb4cd0d4a1ae653b3bf80906040519485523394a480f35b845f5282845260405f2054916006855260405f205492813b156106615760405163c69adb2d60e01b808252600482018990526024820192909252604481019490945292905f908290606490829084905af18015611ef357611edc575b50908792916001541691868452845260408320549160068552604084205490803b156108085760405192835260048301889052602483019390935260448201529082908290606490829084905af180156104a357611ec8575b80611ddc565b611ed1906121ff565b61080857845f611ec2565b611ee991939298506121ff565b5f9690915f611e69565b6040513d5f823e3d90fd5b83601b6064926040519262461bcd60e51b845260048401528201527f7461726765742070726f6a65637420616c7265616479207061696400000000006044820152fd5b60405162461bcd60e51b8152600481018690526018818401527f7461726765742070726f6a6563742063616e63656c6c656400000000000000006044820152606490fd5b50634e487b7160e01b5f9081526021600452fd5b611fad91503d805f833e610ce88183612292565b50505050509750505050505050505f611d47565b60405162461bcd60e51b8152600481018790526021818501527f63616e6e6f7420726561737369676e2066726f6d20706169642070726f6a65636044820152601d60fa1b6064820152608490fd5b82634e487b7160e01b5f5260216004525ffd5b6120379195503d805f833e610ce88183612292565b5050505050975050505050505050935f611d12565b9060176064926040519262461bcd60e51b845260048401528201527f696e73756666696369656e7420616c6c6f636174696f6e0000000000000000006044820152fd5b34610661576020366003190112610661576004355f526005602052602060405f2054604051908152f35b3461066157602036600319011261066157600435600281101561066157335f52600960205260405f2060ff1981541660ff83161790556120fc6040518092612173565b7fd291cd014abe3a14e4776a3418c6146c9d742088f5b1080d22bf5d30a1d9750060203392a2005b34610661575f366003190112610661576002546001600160a01b03168152602090f35b600435906001600160a01b038216820361066157565b6040906003190112610661576004359060243590565b9060028210156121805752565b634e487b7160e01b5f52602160045260245ffd5b9181601f84011215610661578235916001600160401b038311610661576020808501948460051b01011161066157565b8054156121d6575f5260205f20905f90565b634e487b7160e01b5f52603260045260245ffd5b80548210156121d6575f5260205f2001905f90565b6001600160401b03811161221257604052565b634e487b7160e01b5f52604160045260245ffd5b60c081019081106001600160401b0382111761221257604052565b60a081019081106001600160401b0382111761221257604052565b604081019081106001600160401b0382111761221257604052565b602081019081106001600160401b0382111761221257604052565b90601f801991011681019081106001600160401b0382111761221257604052565b6001600160401b03811161221257601f01601f191660200190565b9080601f83011215610661578151906122e6826122b3565b926122f46040519485612292565b82845260209160208483010111610661575f5b83811061231c5750505060205f918301015290565b8181018301518582018401528201612307565b9190916101c081840312610661578051926020820151906001600160401b039182811161066157816123629185016122ce565b936040840151838111610661578261237b9186016122ce565b9360608101519360808201519360a08301519360c08401519360e08101519361010082015160088110156106615793610120830151918211610661576123c29183016122ce565b9161014082015191610160810151801515810361066157916101a061018083015192015190565b919082039182116123f657565b634e487b7160e01b5f52601160045260245ffd5b919082018092116123f657565b3d15612441573d90612428826122b3565b916124366040519384612292565b82523d5f602084013e565b606090565b1561244d57565b60405162461bcd60e51b815260206004820152600f60248201526e1d1c985b9cd9995c8819985a5b1959608a1b6044820152606490fd5b1561248b57565b60405162461bcd60e51b81526020600482015260096024820152681b9bc8185b5bdd5b9d60ba1b6044820152606490fd5b156124c357565b60405162461bcd60e51b815260206004820152601e60248201527f696e73756666696369656e7420756e616c6c6f63617465642066756e647300006044820152606490fd5b1561250f57565b60405162461bcd60e51b81526020600482015260116024820152701c1c9bda9958dd0818d85b98d95b1b1959607a1b6044820152606490fd5b1561254f57565b60405162461bcd60e51b81526020600482015260146024820152731c1c9bda9958dd08185b1c9958591e481c185a5960621b6044820152606490fd5b6001600160401b0381116122125760051b60200190565b805490600160401b821015612212578161117d9160016125c4940181556121ea565b9055565b91908110156121d65760051b0190565b156125df57565b60405162461bcd60e51b815260206004820152600a60248201526937b7363c9030b236b4b760b11b6044820152606490fdfea2646970667358221220fdb01a00967279f5bcb7ec1a8c13112a668278e73779b64f4722d0f66414731964736f6c63430008170033","linkReferences":{}},"methodIdentifiers":{"admin()":"f851a440","allocate(bytes32,uint256)":"7f7dccc1","allocateMultiple(bytes32[],uint256[])":"c024b38e","allocationOf(address,bytes32)":"49c4cf4b","balance()":"b69ef8a8","defaultRefundPolicy()":"8598a90c","donate()":"ed88c68e","donationReceipts(address,uint256)":"f103c59a","donorRefundPolicy(address)":"eaecc6ee","getAllocatedAmount(address,bytes32)":"8cec102d","getDonationReceipts(address)":"43abf339","getDonorStats(address)":"c8eb0c88","getProjectFunding(bytes32)":"b015ceb7","payout(address,bytes32,uint256,bytes32)":"c06ec9b0","personalBalance(address)":"a5c08f01","projectsContract()":"4bd335b8","reassign(bytes32,bytes32,uint256)":"178832dc","receipts(bytes32)":"ef6cf04d","refundCancelledProject(bytes32)":"3613a4c3","sbtContract()":"06158360","setContracts(address,address)":"d8952a49","setRefundPolicy(uint8)":"0d92a2c7","topUp(bytes32,uint256)":"b67644b9","totalAllocatedTo(bytes32)":"1565d8e1","totalDonatedBy(address)":"7b4424b8","totalPaidOutFrom(bytes32)":"be1ce6c0","totalUnallocatedBy(address)":"fb580ace","withdrawPersonalBalance()":"3d0470f8"},"id":20}