{"abi":[{"type":"constructor","inputs":[],"stateMutability":"nonpayable"},{"type":"function","name":"admin","inputs":[],"outputs":[{"name":"","type":"address","internalType":"address"}],"stateMutability":"view"},{"type":"function","name":"autoWeightUpdates","inputs":[],"outputs":[{"name":"","type":"bool","internalType":"bool"}],"stateMutability":"view"},{"type":"function","name":"baseDonationUnit","inputs":[],"outputs":[{"name":"","type":"uint256","internalType":"uint256"}],"stateMutability":"view"},{"type":"function","name":"burn","inputs":[{"name":"from","type":"address","internalType":"address"}],"outputs":[],"stateMutability":"nonpayable"},{"type":"function","name":"getAllMembers","inputs":[],"outputs":[{"name":"","type":"address[]","internalType":"address[]"}],"stateMutability":"view"},{"type":"function","name":"getMemberInfo","inputs":[{"name":"member","type":"address","internalType":"address"}],"outputs":[{"name":"hasTokenInfo","type":"bool","internalType":"bool"},{"name":"weight","type":"uint256","internalType":"uint256"},{"name":"totalDonatedAmount","type":"uint256","internalType":"uint256"},{"name":"memberSinceTimestamp","type":"uint256","internalType":"uint256"},{"name":"manualWeightOverride","type":"uint256","internalType":"uint256"}],"stateMutability":"view"},{"type":"function","name":"getMembersPaginated","inputs":[{"name":"offset","type":"uint256","internalType":"uint256"},{"name":"limit","type":"uint256","internalType":"uint256"}],"outputs":[{"name":"members","type":"address[]","internalType":"address[]"},{"name":"weights","type":"uint256[]","internalType":"uint256[]"},{"name":"donations","type":"uint256[]","internalType":"uint256[]"}],"stateMutability":"view"},{"type":"function","name":"getWeightDistribution","inputs":[],"outputs":[{"name":"weightBuckets","type":"uint256[]","internalType":"uint256[]"},{"name":"memberCounts","type":"uint256[]","internalType":"uint256[]"}],"stateMutability":"view"},{"type":"function","name":"hasToken","inputs":[{"name":"","type":"address","internalType":"address"}],"outputs":[{"name":"","type":"bool","internalType":"bool"}],"stateMutability":"view"},{"type":"function","name":"manualWeight","inputs":[{"name":"","type":"address","internalType":"address"}],"outputs":[{"name":"","type":"uint256","internalType":"uint256"}],"stateMutability":"view"},{"type":"function","name":"memberAddresses","inputs":[{"name":"","type":"uint256","internalType":"uint256"}],"outputs":[{"name":"","type":"address","internalType":"address"}],"stateMutability":"view"},{"type":"function","name":"memberIndex","inputs":[{"name":"","type":"address","internalType":"address"}],"outputs":[{"name":"","type":"uint256","internalType":"uint256"}],"stateMutability":"view"},{"type":"function","name":"memberSince","inputs":[{"name":"","type":"address","internalType":"address"}],"outputs":[{"name":"","type":"uint256","internalType":"uint256"}],"stateMutability":"view"},{"type":"function","name":"minimumDonation","inputs":[],"outputs":[{"name":"","type":"uint256","internalType":"uint256"}],"stateMutability":"view"},{"type":"function","name":"mint","inputs":[{"name":"to","type":"address","internalType":"address"},{"name":"donationAmount","type":"uint256","internalType":"uint256"}],"outputs":[],"stateMutability":"nonpayable"},{"type":"function","name":"setAutoWeightUpdates","inputs":[{"name":"enabled","type":"bool","internalType":"bool"}],"outputs":[],"stateMutability":"nonpayable"},{"type":"function","name":"setConfiguration","inputs":[{"name":"newWeightCap","type":"uint256","internalType":"uint256"},{"name":"newBaseDonationUnit","type":"uint256","internalType":"uint256"},{"name":"newMinimumDonation","type":"uint256","internalType":"uint256"}],"outputs":[],"stateMutability":"nonpayable"},{"type":"function","name":"setManualWeight","inputs":[{"name":"who","type":"address","internalType":"address"},{"name":"w","type":"uint256","internalType":"uint256"}],"outputs":[],"stateMutability":"nonpayable"},{"type":"function","name":"setWeightMode","inputs":[{"name":"newMode","type":"uint8","internalType":"enum GovernanceSBT.WeightMode"}],"outputs":[],"stateMutability":"nonpayable"},{"type":"function","name":"totalActiveMembers","inputs":[],"outputs":[{"name":"","type":"uint256","internalType":"uint256"}],"stateMutability":"view"},{"type":"function","name":"totalDonated","inputs":[{"name":"","type":"address","internalType":"address"}],"outputs":[{"name":"","type":"uint256","internalType":"uint256"}],"stateMutability":"view"},{"type":"function","name":"totalMembers","inputs":[],"outputs":[{"name":"","type":"uint256","internalType":"uint256"}],"stateMutability":"view"},{"type":"function","name":"updateWeight","inputs":[{"name":"who","type":"address","internalType":"address"},{"name":"newTotalDonated","type":"uint256","internalType":"uint256"}],"outputs":[],"stateMutability":"nonpayable"},{"type":"function","name":"weightCap","inputs":[],"outputs":[{"name":"","type":"uint256","internalType":"uint256"}],"stateMutability":"view"},{"type":"function","name":"weightMode","inputs":[],"outputs":[{"name":"","type":"uint8","internalType":"enum GovernanceSBT.WeightMode"}],"stateMutability":"view"},{"type":"function","name":"weightOf","inputs":[{"name":"who","type":"address","internalType":"address"}],"outputs":[{"name":"","type":"uint256","internalType":"uint256"}],"stateMutability":"view"},{"type":"event","name":"AutoWeightToggled","inputs":[{"name":"enabled","type":"bool","indexed":false,"internalType":"bool"}],"anonymous":false},{"type":"event","name":"Burned","inputs":[{"name":"from","type":"address","indexed":true,"internalType":"address"}],"anonymous":false},{"type":"event","name":"ConfigurationUpdated","inputs":[{"name":"weightCap","type":"uint256","indexed":false,"internalType":"uint256"},{"name":"baseDonationUnit","type":"uint256","indexed":false,"internalType":"uint256"},{"name":"minimumDonation","type":"uint256","indexed":false,"internalType":"uint256"}],"anonymous":false},{"type":"event","name":"Minted","inputs":[{"name":"to","type":"address","indexed":true,"internalType":"address"},{"name":"weight","type":"uint256","indexed":false,"internalType":"uint256"},{"name":"totalDonated","type":"uint256","indexed":false,"internalType":"uint256"}],"anonymous":false},{"type":"event","name":"WeightModeChanged","inputs":[{"name":"oldMode","type":"uint8","indexed":false,"internalType":"enum GovernanceSBT.WeightMode"},{"name":"newMode","type":"uint8","indexed":false,"internalType":"enum GovernanceSBT.WeightMode"}],"anonymous":false},{"type":"event","name":"WeightUpdated","inputs":[{"name":"who","type":"address","indexed":true,"internalType":"address"},{"name":"oldWeight","type":"uint256","indexed":false,"internalType":"uint256"},{"name":"newWeight","type":"uint256","indexed":false,"internalType":"uint256"},{"name":"totalDonated","type":"uint256","indexed":false,"internalType":"uint256"}],"anonymous":false}],"bytecode":{"object":"0x60808060405234610057575f80546064600555670de0b6b3a764000060065567016345785d8a00006007556008805460ff191660011790556001600160a81b0319163317600160a01b1790556113f7908161005c8239f35b5f80fdfe604060808152600480361015610013575f80fd5b5f3560e01c90816305143be914610e8e5781630d46917014610e595781630f3a1d4714610e2257816322f3fa2d14610deb5781633dd3527914610db457816340c10f1914610c41578163489801df146109c55781635ddb48c214610b3a5781635f1231ea14610a6c5781635f8528dd146109e357816376e92559146109c55781637c0f6b351461093257816381f13a75146109145781638725f3fa146108a657816389afcb44146106f85781638bd1e6781461056057816396d8f4f3146105425781639776e94b146104835781639bb0f59914610447578163c82db6ee14610424578163cc4e6299146103e4578163d60c47e2146101d957508063dd4bc101146101ad578063e9e9173a14610183578063f851a4401461015c5763f8d1ba7b1461013b575f80fd5b34610158575f366003190112610158576020906006549051908152f35b5f80fd5b5034610158575f366003190112610158575f5490516001600160a01b039091168152602090f35b5034610158575f366003190112610158576020906101ab60ff5f5460a01c169151809261105a565bf35b5034610158576020366003190112610158576020906101d26101cd610f8c565b611227565b9051908152f35b8234610158575f366003190112610158578051916101f68361110d565b6006835260209060c036838601378251906102108261110d565b6006825260c036848401376001906001610229876111b6565b52600580610236886111c3565b52600a80610243896111d3565b5260199060196102528a6111e3565b5260329260326102618b6111f3565b525f1961026d8b611203565b52600a54945f5b8681106102a6578b8b6102a28c8c6102958451958587968752860190610fde565b9184830390850152610fde565b0390f35b6102af81611011565b90548c5163dd4bc10160e01b815260039290921b1c6001600160a01b0316838201528a81602481305afa9081156103da5789929188915f916103a8575b508084036103195750506103086103028b6111b6565b516110eb565b6103118b6111b6565b525b01610274565b85811161033d57505061032e6103028b6111c3565b6103378b6111c3565b52610313565b86811161035b5750506103526103028b6111d3565b6103378b6111d3565b8781116103795750506103706103028b6111e3565b6103378b6111e3565b116103935761038a6103028b6111f3565b6103378b6111f3565b61039f6103028b611203565b6103378b611203565b935050508a82813d83116103d3575b6103c1818361113d565b8101031261015857868992518f6102ec565b503d6103b7565b8c513d5f823e3d90fd5b905034610158576020366003190112610158573590600a548210156101585761040e602092611011565b905491519160018060a01b039160031b1c168152f35b8234610158575f3660031901126101585760209060ff6008541690519015158152f35b8234610158576020366003190112610158576020906001600160a01b0361046c610f8c565b165f526001825260ff815f20541690519015158152f35b82346101585780600319360112610158577f06ad2ab3ba56fadf4aa474255fb7c4fefd6891e01e6e853def2aaa322ab52a2b6104bd610f8c565b5f5460243593916001600160a01b03916104da908316331461107b565b1692835f5260016020526104f360ff835f2054166110b4565b835f52600360205261053d61050a835f20546112c1565b91855f52600360205280845f2055610521816112c1565b9351938493846040919493926060820195825260208201520152565b0390a2005b8234610158575f366003190112610158576020906007549051908152f35b90503461015857816003193601126101585780356024916105836024358361115f565b600a548082116106f0575b50828111156106e8578281039081116106d557925b6105ac8461116c565b936105b98651958661113d565b8085526105c58161116c565b60209390601f190136878601376105db82611184565b926105e583611184565b955f5b84811061061d57610610896102a28c8b6102958c8c8451978897606089526060890190610fa2565b9187830390880152610fde565b61062f61062a828461115f565b611011565b9054600391821b1c6001600160a01b031691908261064d838d611213565b528b5163dd4bc10160e01b81528681018490529289848781305afa80156106cb575f9061069d575b60019450610683848b611213565b525f5288528a5f2054610696828b611213565b52016105e8565b508984813d83116106c4575b6106b3818361113d565b810103126101585760019351610675565b503d6106a9565b8d513d5f823e3d90fd5b601182634e487b7160e01b5f525260245ffd5b505f926105a3565b90505f61058e565b8234610158576020918260031936011261015857610714610f8c565b5f546001600160a01b039391849161072f908316331461107b565b1693845f526001815260ff825f2054161561087257845f5260018152815f2060ff198154169055600281525f82812055600381525f828120558281525f82812055600b8152815f205493600a54945f199586810190811161085f576107948391611011565b90549060031b1c166107c7816107a984611011565b90919060018060a01b038084549260031b9316831b921b1916179055565b5f52600b8352835f2055600a54801561084c5791600b91865f959401906107ed82611011565b909182549160031b1b19169055600a55868452528120556009549081156108395750016009557f083a2bd76492cfa12383a9b3d6b1b20c7e382a0c0ec4f29da7016fe37203e9c85f80a2005b601190634e487b7160e01b5f525260245ffd5b603185634e487b7160e01b5f525260245ffd5b601186634e487b7160e01b5f525260245ffd5b905162461bcd60e51b815291820152601060248201526f3737903a37b5b2b7103a3790313ab93760811b6044820152606490fd5b905034610158576020366003190112610158573590811515809203610158577fbd17c8d70ba0a16b523abd9d92414f89bc2f7416ae2b6cadd674395786d2d35d916020916108fe60018060a01b035f5416331461107b565b60ff196008541660ff83161760085551908152a1005b8234610158575f366003190112610158576020906005549051908152f35b8234610158575f366003190112610158578051600a80548083525f918252602080840194927fc65a7bb8d6351c1cf70c95a316cc6a92839c986682d98bc35f958f4883f9d2a892915b8282106109a5576102a28686610993828b038361113d565b51918291602083526020830190610fa2565b83546001600160a01b03168752958601956001938401939091019061097b565b8234610158575f366003190112610158576020906009549051908152f35b8234610158576020366003190112610158578135918210156101585760ff610a697f7137a53ef571dd8eb37ca3b38b5c794962c43aec7390a4c1a581aa51d621f65693610a5f5f54610a3e60018060a01b038216331461107b565b8460a01b8360a01b168560a01b198216175f55855194859160a01c1661105a565b602083019061105a565ba1005b90503461015857602080600319360112610158576001600160a01b03610a90610f8c565b16805f526001825260ff845f2054169284519463dd4bc10160e01b865282828701528386602481305afa928315610b30575f93610b00575b60a096505f5260038452805f2054918452805f20549260028552815f2054948251961515875286015284015260608301526080820152f35b92508386813d8311610b29575b610b17818361113d565b810103126101585760a0955192610ac8565b503d610b0d565b50513d5f823e3d90fd5b9050346101585760603660031901126101585780356024359160443590610b6b60018060a01b035f5416331461107b565b8215610c05578315610bca5750610bc5907fd1df9ea585fa96cacfd37b45876312d2c04c0f6bf740539becffbec7e81822be9483600555846006558160075551938493846040919493926060820195825260208201520152565b0390a1005b606490602086519162461bcd60e51b8352820152601560248201527406261736520756e6974206d757374206265203e203605c1b6044820152fd5b606490602086519162461bcd60e51b83528201526016602482015275077656967687420636170206d757374206265203e20360541b6044820152fd5b905034610158578160031936011261015857610c5b610f8c565b916024359160018060a01b03610c75815f5416331461107b565b841692835f526020916001835260ff845f205416610d7d576007548210610d4757845f5260018352835f20600160ff198254161790556003835281845f205580835242845f2055600a5490600b845281855f205568010000000000000000821015610d3457507f25b428dfde728ccfaddad7e29e4ac23c24ed7fd1a6e3e3f91894a9a073f5dfff94956107a9826001610d119401600a55611011565b610d1c6009546110eb565b600955610d28816112c1565b918351928352820152a2005b604190634e487b7160e01b5f525260245ffd5b835162461bcd60e51b8152908101839052601060248201526f646f6e6174696f6e20746f6f206c6f7760801b6044820152606490fd5b835162461bcd60e51b8152908101839052601160248201527030b63932b0b23c903430b9903a37b5b2b760791b6044820152606490fd5b8234610158576020366003190112610158576020906001600160a01b03610dd9610f8c565b165f52600b8252805f20549051908152f35b8234610158576020366003190112610158576020906001600160a01b03610e10610f8c565b165f5260028252805f20549051908152f35b8234610158576020366003190112610158576020906001600160a01b03610e47610f8c565b165f5260038252805f20549051908152f35b8234610158576020366003190112610158576020916001600160a01b03610e7e610f8c565b165f528252805f20549051908152f35b905034610158578160031936011261015857610ea8610f8c565b5f54602435916001600160a01b0391610ec4908316331461107b565b1691825f526001602052610edd60ff855f2054166110b4565b6005548211610f54575081927f06ad2ab3ba56fadf4aa474255fb7c4fefd6891e01e6e853def2aaa322ab52a2b925f52600360205261053d610f21825f20546112c1565b91855f52600260205283815f20556003602052805f20549051938493846040919493926060820195825260208201520152565b606490602085519162461bcd60e51b8352820152601260248201527107765696768742065786365656473206361760741b6044820152fd5b600435906001600160a01b038216820361015857565b9081518082526020808093019301915f5b828110610fc1575050505090565b83516001600160a01b031685529381019392810192600101610fb3565b9081518082526020808093019301915f5b828110610ffd575050505090565b835185529381019392810192600101610fef565b600a5481101561104657600a5f527fc65a7bb8d6351c1cf70c95a316cc6a92839c986682d98bc35f958f4883f9d2a801905f90565b634e487b7160e01b5f52603260045260245ffd5b9060048210156110675752565b634e487b7160e01b5f52602160045260245ffd5b1561108257565b60405162461bcd60e51b815260206004820152600a60248201526937b7363c9030b236b4b760b11b6044820152606490fd5b156110bb57565b60405162461bcd60e51b81526020600482015260086024820152673737903a37b5b2b760c11b6044820152606490fd5b5f1981146110f95760010190565b634e487b7160e01b5f52601160045260245ffd5b60e0810190811067ffffffffffffffff82111761112957604052565b634e487b7160e01b5f52604160045260245ffd5b90601f8019910116810190811067ffffffffffffffff82111761112957604052565b919082018092116110f957565b67ffffffffffffffff81116111295760051b60200190565b9061118e8261116c565b61119b604051918261113d565b82815280926111ac601f199161116c565b0190602036910137565b8051156110465760200190565b8051600110156110465760400190565b8051600210156110465760600190565b8051600310156110465760800190565b8051600410156110465760a00190565b8051600510156110465760c00190565b80518210156110465760209160051b010190565b6001600160a01b03165f8181526001602052604090205460ff161561129e5760ff5f5460a01c16600481101561106757158015611289575b61127a575f52600360205261127760405f20546112c1565b90565b5f52600260205260405f205490565b50805f52600260205260405f2054151561125f565b505f90565b81156112ad570490565b634e487b7160e01b5f52601260045260245ffd5b801561129e5760ff5f5460a01c166004811015611067576001810361130257506006546112ed916112a3565b60055490818111156112fd575090565b905090565b60028103611325575061131b61132091600654906112a3565b61137c565b6112ed565b60030361134c57600654611338916112a3565b600181018091116110f95761132090611352565b50600190565b801561129e575f905b6001908181111561137757611371911c916110eb565b9061135b565b505090565b801561129e5760018082018083116110f95760011c90825b8383106113a15750505090565b909192506113b8836113b381846112a3565b61115f565b821c919061139456fea26469706673582212206d789184608aba1d3ed800de06d9f50b99e1e36032b5a56b90647138730254f264736f6c63430008170033","linkReferences":{}},"methodIdentifiers":{"admin()":"f851a440","autoWeightUpdates()":"c82db6ee","baseDonationUnit()":"f8d1ba7b","burn(address)":"89afcb44","getAllMembers()":"7c0f6b35","getMemberInfo(address)":"5f1231ea","getMembersPaginated(uint256,uint256)":"8bd1e678","getWeightDistribution()":"d60c47e2","hasToken(address)":"9bb0f599","manualWeight(address)":"22f3fa2d","memberAddresses(uint256)":"cc4e6299","memberIndex(address)":"3dd35279","memberSince(address)":"0d469170","minimumDonation()":"96d8f4f3","mint(address,uint256)":"40c10f19","setAutoWeightUpdates(bool)":"8725f3fa","setConfiguration(uint256,uint256,uint256)":"5ddb48c2","setManualWeight(address,uint256)":"05143be9","setWeightMode(uint8)":"5f8528dd","totalActiveMembers()":"489801df","totalDonated(address)":"0f3a1d47","totalMembers()":"76e92559","updateWeight(address,uint256)":"9776e94b","weightCap()":"81f13a75","weightMode()":"e9e9173a","weightOf(address)":"dd4bc101"},"id":18}