{"abi":[{"type":"constructor","inputs":[],"stateMutability":"nonpayable"},{"type":"function","name":"admin","inputs":[],"outputs":[{"name":"","type":"address","internalType":"address"}],"stateMutability":"view"},{"type":"function","name":"createProject","inputs":[{"name":"id","type":"bytes32","internalType":"bytes32"},{"name":"name","type":"string","internalType":"string"},{"name":"description","type":"string","internalType":"string"},{"name":"target","type":"uint256","internalType":"uint256"},{"name":"softCap","type":"uint256","internalType":"uint256"},{"name":"hardCap","type":"uint256","internalType":"uint256"},{"name":"category","type":"string","internalType":"string"},{"name":"deadline","type":"uint256","internalType":"uint256"},{"name":"softCapEnabled","type":"bool","internalType":"bool"}],"outputs":[],"stateMutability":"nonpayable"},{"type":"function","name":"defaultMaxActivePerCategory","inputs":[],"outputs":[{"name":"","type":"uint256","internalType":"uint256"}],"stateMutability":"view"},{"type":"function","name":"getActiveProjectsByCategory","inputs":[{"name":"category","type":"string","internalType":"string"}],"outputs":[{"name":"","type":"bytes32[]","internalType":"bytes32[]"}],"stateMutability":"view"},{"type":"function","name":"getProject","inputs":[{"name":"id","type":"bytes32","internalType":"bytes32"}],"outputs":[{"name":"name","type":"string","internalType":"string"},{"name":"description","type":"string","internalType":"string"},{"name":"target","type":"uint256","internalType":"uint256"},{"name":"softCap","type":"uint256","internalType":"uint256"},{"name":"hardCap","type":"uint256","internalType":"uint256"},{"name":"createdAt","type":"uint256","internalType":"uint256"},{"name":"deadline","type":"uint256","internalType":"uint256"},{"name":"status","type":"uint8","internalType":"enum Projects.Status"},{"name":"category","type":"string","internalType":"string"},{"name":"priority","type":"uint256","internalType":"uint256"},{"name":"softCapEnabled","type":"bool","internalType":"bool"},{"name":"totalAllocated","type":"uint256","internalType":"uint256"},{"name":"totalPaidOut","type":"uint256","internalType":"uint256"}],"stateMutability":"view"},{"type":"function","name":"getProjectsByCategory","inputs":[{"name":"category","type":"string","internalType":"string"}],"outputs":[{"name":"","type":"bytes32[]","internalType":"bytes32[]"}],"stateMutability":"view"},{"type":"function","name":"globalSoftCapEnabled","inputs":[],"outputs":[{"name":"","type":"bool","internalType":"bool"}],"stateMutability":"view"},{"type":"function","name":"isExpired","inputs":[{"name":"id","type":"bytes32","internalType":"bytes32"}],"outputs":[{"name":"","type":"bool","internalType":"bool"}],"stateMutability":"view"},{"type":"function","name":"listIds","inputs":[],"outputs":[{"name":"","type":"bytes32[]","internalType":"bytes32[]"}],"stateMutability":"view"},{"type":"function","name":"maxActivePerCategory","inputs":[{"name":"","type":"string","internalType":"string"}],"outputs":[{"name":"","type":"uint256","internalType":"uint256"}],"stateMutability":"view"},{"type":"function","name":"projectIds","inputs":[{"name":"","type":"uint256","internalType":"uint256"}],"outputs":[{"name":"","type":"bytes32","internalType":"bytes32"}],"stateMutability":"view"},{"type":"function","name":"projects","inputs":[{"name":"","type":"bytes32","internalType":"bytes32"}],"outputs":[{"name":"id","type":"bytes32","internalType":"bytes32"},{"name":"name","type":"string","internalType":"string"},{"name":"description","type":"string","internalType":"string"},{"name":"target","type":"uint256","internalType":"uint256"},{"name":"softCap","type":"uint256","internalType":"uint256"},{"name":"hardCap","type":"uint256","internalType":"uint256"},{"name":"createdAt","type":"uint256","internalType":"uint256"},{"name":"deadline","type":"uint256","internalType":"uint256"},{"name":"status","type":"uint8","internalType":"enum Projects.Status"},{"name":"category","type":"string","internalType":"string"},{"name":"priority","type":"uint256","internalType":"uint256"},{"name":"softCapEnabled","type":"bool","internalType":"bool"},{"name":"totalAllocated","type":"uint256","internalType":"uint256"},{"name":"totalPaidOut","type":"uint256","internalType":"uint256"}],"stateMutability":"view"},{"type":"function","name":"projectsByCategory","inputs":[{"name":"","type":"string","internalType":"string"},{"name":"","type":"uint256","internalType":"uint256"}],"outputs":[{"name":"","type":"bytes32","internalType":"bytes32"}],"stateMutability":"view"},{"type":"function","name":"setCategoryLimit","inputs":[{"name":"category","type":"string","internalType":"string"},{"name":"maxActive","type":"uint256","internalType":"uint256"}],"outputs":[],"stateMutability":"nonpayable"},{"type":"function","name":"setDefaultMaxActivePerCategory","inputs":[{"name":"maxActive","type":"uint256","internalType":"uint256"}],"outputs":[],"stateMutability":"nonpayable"},{"type":"function","name":"setGlobalSoftCap","inputs":[{"name":"enabled","type":"bool","internalType":"bool"}],"outputs":[],"stateMutability":"nonpayable"},{"type":"function","name":"setPriority","inputs":[{"name":"id","type":"bytes32","internalType":"bytes32"},{"name":"priority","type":"uint256","internalType":"uint256"}],"outputs":[],"stateMutability":"nonpayable"},{"type":"function","name":"setStatus","inputs":[{"name":"id","type":"bytes32","internalType":"bytes32"},{"name":"newStatus","type":"uint8","internalType":"enum Projects.Status"},{"name":"reason","type":"string","internalType":"string"}],"outputs":[],"stateMutability":"nonpayable"},{"type":"function","name":"updateFunding","inputs":[{"name":"id","type":"bytes32","internalType":"bytes32"},{"name":"totalAllocated","type":"uint256","internalType":"uint256"},{"name":"totalPaidOut","type":"uint256","internalType":"uint256"}],"outputs":[],"stateMutability":"nonpayable"},{"type":"function","name":"updateProject","inputs":[{"name":"id","type":"bytes32","internalType":"bytes32"},{"name":"name","type":"string","internalType":"string"},{"name":"description","type":"string","internalType":"string"},{"name":"target","type":"uint256","internalType":"uint256"},{"name":"softCap","type":"uint256","internalType":"uint256"},{"name":"hardCap","type":"uint256","internalType":"uint256"},{"name":"category","type":"string","internalType":"string"},{"name":"deadline","type":"uint256","internalType":"uint256"}],"outputs":[],"stateMutability":"nonpayable"},{"type":"event","name":"CategoryLimitUpdated","inputs":[{"name":"category","type":"string","indexed":false,"internalType":"string"},{"name":"maxActive","type":"uint256","indexed":false,"internalType":"uint256"}],"anonymous":false},{"type":"event","name":"GlobalSoftCapToggled","inputs":[{"name":"enabled","type":"bool","indexed":false,"internalType":"bool"}],"anonymous":false},{"type":"event","name":"ProjectCancelled","inputs":[{"name":"id","type":"bytes32","indexed":true,"internalType":"bytes32"},{"name":"reason","type":"string","indexed":false,"internalType":"string"}],"anonymous":false},{"type":"event","name":"ProjectCreated","inputs":[{"name":"id","type":"bytes32","indexed":true,"internalType":"bytes32"},{"name":"name","type":"string","indexed":false,"internalType":"string"},{"name":"target","type":"uint256","indexed":false,"internalType":"uint256"},{"name":"softCap","type":"uint256","indexed":false,"internalType":"uint256"},{"name":"hardCap","type":"uint256","indexed":false,"internalType":"uint256"},{"name":"category","type":"string","indexed":false,"internalType":"string"},{"name":"deadline","type":"uint256","indexed":false,"internalType":"uint256"}],"anonymous":false},{"type":"event","name":"ProjectFundingUpdated","inputs":[{"name":"id","type":"bytes32","indexed":true,"internalType":"bytes32"},{"name":"totalAllocated","type":"uint256","indexed":false,"internalType":"uint256"},{"name":"totalPaidOut","type":"uint256","indexed":false,"internalType":"uint256"}],"anonymous":false},{"type":"event","name":"ProjectStatusChanged","inputs":[{"name":"id","type":"bytes32","indexed":true,"internalType":"bytes32"},{"name":"oldStatus","type":"uint8","indexed":false,"internalType":"enum Projects.Status"},{"name":"newStatus","type":"uint8","indexed":false,"internalType":"enum Projects.Status"},{"name":"reason","type":"string","indexed":false,"internalType":"string"}],"anonymous":false},{"type":"event","name":"ProjectUpdated","inputs":[{"name":"id","type":"bytes32","indexed":true,"internalType":"bytes32"}],"anonymous":false}],"bytecode":{"object":"0x60808060405234610036576005805460ff19169055600a6006555f80546001600160a01b031916331790556121b6908161003b8239f35b5f80fdfe6080806040526004361015610012575f80fd5b5f3560e01c908162ea3c9114611be057508063089d00a914611b725780630aa6d6ff14611b29578063219d0d64146113cb5780632e4efe951461134657806339b8cec8146112ee57806348c35ad41461129e5780634b5f748a146110a55780634f9975a51461101f5780636db2feb214610f215780637c52e4fa14610da3578063999b5ba014610c29578063b96ea12d14610b1a578063bfd7dfd2146103b5578063c69adb2d1461024e578063d1c8404314610221578063d9cf2f28146101ff578063de5d00b314610177578063ed832af4146101225763f851a440146100f7575f80fd5b3461011e575f36600319011261011e575f546040516001600160a01b039091168152602090f35b5f80fd5b3461011e57602061014a61013536611d2f565b92908160405193828580945193849201611c8c565b81016002815203019020805482101561011e5760209161016991611ce8565b90546040519160031b1c8152f35b3461011e575f36600319011261011e57604051806004549182815260208091019260045f527f8a35acfbc15ff81a39ae7d344fd709f28e8600b4aa8c65c6b64bfe7fe36bd19b915f905b8282106101e8576101e4856101d881890382611c16565b60405191829182611cad565b0390f35b8354865294850194600193840193909101906101c1565b3461011e575f36600319011261011e57602060ff600554166040519015158152f35b3461011e57602036600319011261011e5761024660018060a01b035f54163314611e3a565b600435600655005b3461011e57606036600319011261011e5760043560243560443561027c60018060a01b035f54163314611e3a565b825f526001602052610296600660405f2001541515611fe2565b825f52600160205260405f2082600c82015581600d82015560ff600b820154165f146103ab5760048101545b83101580610377575b917f4ee9ac185bafc6c3a3df498dc1cabc30fdaf6787fa0e8ce0c8c820b7ab7f63c69391604093610305575b5082519182526020820152a2005b600801600460ff19825416179055847f42e02725726baa2f443068635a312ca9889df157ed804e17bfc1e18ed868029560a0855160018152600460208201526060878201526016606082015275199d5b991a5b99c81d185c99d95d081c995858da195960521b6080820152a2856102f7565b509160ff60088401541691600883101561039757909290916001146102cb565b634e487b7160e01b5f52602160045260245ffd5b60038101546102c2565b3461011e5761010036600319011261011e576024356001600160401b03811161011e576103e6903690600401611c37565b6044356001600160401b03811161011e57610405903690600401611c37565b60c4356001600160401b03811161011e57610424903690600401611c37565b61043860018060a01b035f54163314611e3a565b6004355f526001602052610454600660405f2001541515611fe2565b6104616064351515611e73565b6104716064356084351115611eb4565b60a435158015610b0c575b61048590611f00565b60e435158015610b01575b61049990611f4c565b6004355f52600160205260405f206040515f816009840154916104bb83611d60565b9260018116908115610ae35750600114610aa2575b6104e59250601f198282030182520382611c16565b60208151910120604051602081019061051660208287516105098187858c01611c8c565b8101038084520182611c16565b519020036108b0575b83516001600160401b0381116107255761053c6001830154611d60565b601f811161086c575b506020601f82116001146108015781929394955f926107f6575b50508160011b915f199060031b1c19161760018201555b82516001600160401b038111610725576105936002830154611d60565b601f81116107ae575b506020601f821160011461074457819293945f92610739575b50508160011b915f199060031b1c19161760028201555b6064356003820155608435600482015560a435600582015581516001600160401b038111610725576106016009830154611d60565b601f81116106dd575b50602092601f821160011461067757928192935f9261066c575b50508160011b915f199060031b1c19161760098201555b600760e4359101556004357fe05db94d210a09b006ed07881fe066c8f24a7a74979bfb8f194d05c91fc0a9be5f80a2005b015190508380610624565b601f19821693600984015f5260205f20915f5b8681106106c557508360019596106106ad575b505050811b01600982015561063b565b01515f1960f88460031b161c1916905583808061069d565b9192602060018192868501518155019401920161068a565b600983015f5260205f20601f830160051c8101916020841061071b575b601f0160051c01905b818110610710575061060a565b5f8155600101610703565b90915081906106fa565b634e487b7160e01b5f52604160045260245ffd5b0151905084806105b5565b600283015f5260205f20905f5b601f19841681106107965750600193949583601f1981161061077e575b505050811b0160028201556105cc565b01515f1960f88460031b161c1916905584808061076e565b9091602060018192858a015181550193019101610751565b600283015f5260205f20601f830160051c810191602084106107ec575b601f0160051c01905b8181106107e1575061059c565b5f81556001016107d4565b90915081906107cb565b01519050858061055f565b600183015f5260205f20905f5b601f1984168110610854575060019394959683601f1981161061083c575b505050811b016001820155610576565b01515f1960f88460031b161c1916905585808061082c565b9091602060018192858b01518155019301910161080e565b600183015f5260205f20601f830160051c8101602084106108a9575b601f830160051c8201811061089e575050610545565b5f8155600101610888565b5080610888565b919060405160208183516108c78183858801611c8c565b810160038152030190205415610a7a575b6108e181612085565b60405160208184516108f68183858901611c8c565b81016003815203019020541115610a355761092b602061091860098601611d98565b8160405193828580945193849201611c8c565b81016002815203019020925f5b845480821015610a2a5761094c8287611ce8565b60043591549060031b1c146109645750600101610938565b5f9592939495198101908111610a16576109926109846109a89285611ce8565b90549060031b1c9284611ce8565b819391549060031b91821b915f19901b19161790565b905580548015610a02575f1901906109c08282611ce8565b8154905f199060031b1b19169055555b6109fd60405183516109e6818360208801611c8c565b810190600282526020816004359303019020611fbc565b61051f565b634e487b7160e01b5f52603160045260245ffd5b634e487b7160e01b5f52601160045260245ffd5b5050909192506109d0565b60405162461bcd60e51b815260206004820152601a60248201527f6e65772063617465676f7279206c696d697420726561636865640000000000006044820152606490fd5b6006546040516020818451610a928183858901611c8c565b81016003815203019020556108d8565b5050600983015f528160205f205f905b838210610ac957505060206104e5928201016104d0565b602091925080600191548385880101520191018391610ab2565b602092506104e594915060ff191682840152801515028201016104d0565b504260e43511610490565b5060643560a435101561047c565b3461011e57602036600319011261011e576004355f52600160205260405f20805460018201610b4890611d98565b91610b5560028201611d98565b60038201549160048101546005820154936006830154906007840154600885015460ff169060098601610b8790611d98565b93600a87015498600b88015460ff1696600c89015498600d0154996040519d8e9d8e6101c091815281602082015201610bbf91611cfd565b8d810360408f0152610bd091611cfd565b9560608d015260808c015260a08b015260c08a015260e08901526101008801610bf891611d22565b868103610120880152610c0a91611cfd565b9361014086015215156101608501526101808401526101a08301520390f35b3461011e5760208060031936011261011e576004356001600160401b03811161011e57610c5a903690600401611c37565b81610c6e6040519283815193849201611c8c565b81019082816002936002815203019020906040518083858295549384815201905f52855f20925f5b87828210610d8d57505050610cad92500383611c16565b610cb78251612031565b905f905f5b8451811015610d4b57610ccf8186612063565b51805f526001808852600860ff8160405f20015416908110159182610397578114918215610d3f575b8215610d2e575b5050610d0f575b50600101610cbc565b83610d2791610d216001949688612063565b52612077565b9290610d06565b909150610397576003148880610cff565b5084811491505f610cf8565b5050610d5681612031565b915f5b828110610d6e57604051806101e48682611cad565b80610d7b60019284612063565b51610d868287612063565b5201610d59565b8554845260019586019588955093019201610c96565b3461011e57606036600319011261011e57600435602435600881101561011e576044356001600160401b03811161011e57610de2903690600401611c37565b610df660018060a01b035f54163314611e3a565b825f5260209160018352610e12600660405f2001541515611fe2565b835f526001835260ff600860405f2001541692600884101561039757818414610eea57610e8f92610e977f42e02725726baa2f443068635a312ca9889df157ed804e17bfc1e18ed86802959593610ea893885f5260018152610e7a82600860405f2001611fa4565b60068214610ead575b60405196878097611d22565b850190611d22565b606060408401526060830190611cfd565b0390a2005b887fefdd62b2ddb4bbf8e08b9d2d0739df9ed8320776493ee0241e3c7b29fe76000760405183815280610ee285820189611cfd565b0390a2610e83565b6064906040519062461bcd60e51b82526004820152601060248201526f1cdd185d1d5cc81d5b98da185b99d95960821b6044820152fd5b3461011e57602036600319011261011e576004355f526001602052602060405f20604051610f4e81611bfa565b81548152610f5e60018301611d98565b83820152610f6e60028301611d98565b60408201526003820154606082015260048201546080820152600582015460a0820152600682015460c08201526101a0600d60078401549360e08401948552610fc260ff6008830154166101008601611f98565b610fce60098201611d98565b610120850152600a81015461014085015260ff600b820154161515610160850152600c8101546101808501520154910152518015159081611015575b506040519015158152f35b905042118261100a565b3461011e577f6c11d888f79783eff4b8f619d9b32c3328a591da4c6029206a79edbf8605974061109a61105136611d2f565b61106560018060a01b035f54163314611e3a565b80604051602081855161107b8183858a01611c8c565b8101600381520301902055604051928392604084526040840190611cfd565b9060208301520390a1005b3461011e57602036600319011261011e576004355f52600160205260405f20600d604051916110d383611bfa565b805483526110e360018201611d98565b60208401526110f460028201611d98565b60408401526003810154606084015260048101546080840152600581015460a0840152600681015460c0840152600781015460e084015261114060ff6008830154166101008501611f98565b61114c60098201611d98565b610120840152600a81015461014084015260ff600b820154161515610160840152600c81015461018084015201546101a082015260c08101511561126557602081015160408201519160608101519060808101519060a081015160c08201519360e0830151906101008401516008811015610397576101208501519261014086015197610160870151151595610180880151976101a00151986040519c8d9c8d6101a081526101a0016111fe91611cfd565b8d810360208f015261120f91611cfd565b9560408d015260608c015260808b015260a08a015260c089015260e0880161123691611d22565b86810361010088015261124891611cfd565b936101208601526101408501526101608401526101808301520390f35b60405162461bcd60e51b8152602060048201526011602482015270141c9bda9958dd081b9bdd08199bdd5b99607a1b6044820152606490fd5b3461011e57602036600319011261011e5760043560045481101561011e5760209060045f527f8a35acfbc15ff81a39ae7d344fd709f28e8600b4aa8c65c6b64bfe7fe36bd19b0154604051908152f35b3461011e57604036600319011261011e5760043561131660018060a01b035f54163314611e3a565b805f526001602052611330600660405f2001541515611fe2565b5f526001602052602435600a60405f2001555f80f35b3461011e5760208060031936011261011e576004356001600160401b03811161011e578161091861137b923690600401611c37565b810160028152030190209060405190818184549182815201935f52815f20915f905b8282106113b4576101e4856101d881890382611c16565b83548652948501946001938401939091019061139d565b3461011e5761012036600319011261011e576024356001600160401b03811161011e576113fc903690600401611c37565b6044356001600160401b03811161011e5761141b903690600401611c37565b60c4356001600160401b03811161011e5761143a903690600401611c37565b90610104351515610104350361011e5761145e60018060a01b035f54163314611e3a565b6004355f526001602052600660405f200154611afb576114816064351515611e73565b6114916064356084351115611eb4565b60a435158015611aed575b6114a590611f00565b60e435158015611ae2575b6114b990611f4c565b60405160208184516114ce8183858901611c8c565b810160038152030190205415611aba575b6114e882612085565b60405160208185516114fd8183858a01611c8c565b81016003815203019020541115611a7c57610104358015611a70575b6040519161152683611bfa565b600435835284602084015260408301526064356060830152608435608083015260a43560a08301524260c083015260e43560e08301526001610100830152826101208301525f61014083015215156101608201525f6101808201525f6101a08201526004355f52600160205260405f20908051825560208101518051906001600160401b0382116107255781906115c06001860154611d60565b601f8111611a20575b50602090601f83116001146119b2575f926119a7575b50508160011b915f199060031b1c19161760018301555b60408101518051906001600160401b03821161072557819061161b6002860154611d60565b601f8111611957575b50602090601f83116001146118e9575f926118de575b50508160011b915f199060031b1c19161760028301555b606081015160038301556080810151600483015560a0810151600583015560c0810151600683015560e0810151600783015561010081015160088110156103975761169f9060088401611fa4565b6101208101518051906001600160401b038211610725576116c36009850154611d60565b601f811161189a575b50602090601f8311600114611828579180600d94926101a0945f9261181d575b50508160011b915f199060031b1c19161760098501555b610140810151600a850155600b8401610160820151151560ff80198354169116179055610180810151600c8501550151910155600454600160401b811015610725576001810180600455811015611809577f95b04b3575347d36d0a9ee114adaaf865ba5ab676da0217c2f586028dbcef0f0916117f69160045f52600435907f8a35acfbc15ff81a39ae7d344fd709f28e8600b4aa8c65c6b64bfe7fe36bd19b01556117bb60405182516109e6818360208701611c8c565b6117d06040519460c0865260c0860190611cfd565b906064356020860152608435604086015260a43560608601528482036080860152611cfd565b9160e43560a082015280600435930390a2005b634e487b7160e01b5f52603260045260245ffd5b0151905088806116ec565b90600985015f5260205f20915f5b601f1985168110611882575092600d94926001926101a09583601f1981161061186a575b505050811b016009850155611703565b01515f1960f88460031b161c1916905588808061185a565b91926020600181928685015181550194019201611836565b600985015f5260205f20601f840160051c8101602085106118d7575b601f830160051c820181106118cc5750506116cc565b5f81556001016118b6565b50806118b6565b01519050868061163a565b9250600285015f5260205f20905f935b601f198416851061193c576001945083601f19811610611924575b505050811b016002830155611651565b01515f1960f88460031b161c19169055868080611914565b818101518355602094850194600190930192909101906118f9565b909150600285015f5260205f20601f840160051c8101602085106119a0575b90849392915b601f830160051c82018110611992575050611624565b5f815585945060010161197c565b5080611976565b0151905086806115df565b9250600185015f5260205f20905f935b601f1984168510611a05576001945083601f198116106119ed575b505050811b0160018301556115f6565b01515f1960f88460031b161c191690558680806119dd565b818101518355602094850194600190930192909101906119c2565b909150600185015f5260205f20601f840160051c810160208510611a69575b90849392915b601f830160051c82018110611a5b5750506115c9565b5f8155859450600101611a45565b5080611a3f565b5060ff60055416611519565b60405162461bcd60e51b815260206004820152601660248201527518d85d1959dbdc9e481b1a5b5a5d081c995858da195960521b6044820152606490fd5b6006546040516020818551611ad28183858a01611c8c565b81016003815203019020556114df565b504260e435116114b0565b5060643560a435101561149c565b60405162461bcd60e51b815260206004820152600660248201526565786973747360d01b6044820152606490fd5b3461011e57602036600319011261011e576004356001600160401b03811161011e57611b5f602061091881933690600401611c37565b8101600381520301902054604051908152f35b3461011e57602036600319011261011e5760043580151580910361011e5760207f2a1f66f01501351cdd7bb1c120f97126fd3fb026dfde7e92d82600061263105391611bc860018060a01b035f54163314611e3a565b60ff196005541660ff821617600555604051908152a1005b3461011e575f36600319011261011e576020906006548152f35b6101c081019081106001600160401b0382111761072557604052565b90601f801991011681019081106001600160401b0382111761072557604052565b81601f8201121561011e578035906001600160401b0382116107255760405192611c6b601f8401601f191660200185611c16565b8284526020838301011161011e57815f926020809301838601378301015290565b5f5b838110611c9d5750505f910152565b8181015183820152602001611c8e565b60209060206040818301928281528551809452019301915f5b828110611cd4575050505090565b835185529381019392810192600101611cc6565b8054821015611809575f5260205f2001905f90565b90602091611d1681518092818552858086019101611c8c565b601f01601f1916010190565b9060088210156103975752565b604060031982011261011e57600435906001600160401b03821161011e57611d5991600401611c37565b9060243590565b90600182811c92168015611d8e575b6020831014611d7a57565b634e487b7160e01b5f52602260045260245ffd5b91607f1691611d6f565b9060405191825f8254611daa81611d60565b908184526020946001916001811690815f14611e185750600114611dda575b505050611dd892500383611c16565b565b5f90815285812095935091905b818310611e00575050611dd893508201015f8080611dc9565b85548884018501529485019487945091830191611de7565b92505050611dd894925060ff191682840152151560051b8201015f8080611dc9565b15611e4157565b60405162461bcd60e51b815260206004820152600a60248201526937b7363c9030b236b4b760b11b6044820152606490fd5b15611e7a57565b60405162461bcd60e51b81526020600482015260126024820152710746172676574206d757374206265203e20360741b6044820152606490fd5b15611ebb57565b60405162461bcd60e51b815260206004820152601960248201527f736f6674436170206d757374206265203c3d20746172676574000000000000006044820152606490fd5b15611f0757565b60405162461bcd60e51b815260206004820152601e60248201527f68617264436170206d757374206265203e3d20746172676574206f72203000006044820152606490fd5b15611f5357565b60405162461bcd60e51b815260206004820152601f60248201527f646561646c696e65206d75737420626520696e20667574757265206f722030006044820152606490fd5b60088210156103975752565b9060088110156103975760ff80198354169116179055565b805490600160401b8210156107255781610992916001611fde94018155611ce8565b9055565b15611fe957565b60405162461bcd60e51b81526020600482015260096024820152681b9bdd08199bdd5b9960ba1b6044820152606490fd5b6001600160401b0381116107255760051b60200190565b9061203b8261201a565b6120486040519182611c16565b8281528092612059601f199161201a565b0190602036910137565b80518210156118095760209160051b010190565b5f198114610a165760010190565b90604091604051815161209d81836020809601611c8c565b81019082816002936002815203019020916040518084838296549384815201905f52835f20925f5b8582821061216a575050506120dc92500384611c16565b5f925f5b8151811015612161576120f38183612063565b515f526001808452600860ff818a5f20015416908110159182610397578114918215612155575b8215612144575b5050612130575b6001016120e0565b9361213c600191612077565b949050612128565b909150610397576003145f80612121565b5085811491505f61211a565b50929450505050565b85548452600195860195899550930192016120c556fea26469706673582212208813a94a4a71a17dddd489066ad09782ee79b3ae569851a97ae7fb2bf43c013e64736f6c63430008170033","linkReferences":{}},"methodIdentifiers":{"admin()":"f851a440","createProject(bytes32,string,string,uint256,uint256,uint256,string,uint256,bool)":"219d0d64","defaultMaxActivePerCategory()":"00ea3c91","getActiveProjectsByCategory(string)":"999b5ba0","getProject(bytes32)":"4b5f748a","getProjectsByCategory(string)":"2e4efe95","globalSoftCapEnabled()":"d9cf2f28","isExpired(bytes32)":"6db2feb2","listIds()":"de5d00b3","maxActivePerCategory(string)":"0aa6d6ff","projectIds(uint256)":"48c35ad4","projects(bytes32)":"b96ea12d","projectsByCategory(string,uint256)":"ed832af4","setCategoryLimit(string,uint256)":"4f9975a5","setDefaultMaxActivePerCategory(uint256)":"d1c84043","setGlobalSoftCap(bool)":"089d00a9","setPriority(bytes32,uint256)":"39b8cec8","setStatus(bytes32,uint8,string)":"7c52e4fa","updateFunding(bytes32,uint256,uint256)":"c69adb2d","updateProject(bytes32,string,string,uint256,uint256,uint256,string,uint256)":"bfd7dfd2"},"id":24}